{
  "contractName": "MainPriceFeedConsumer",
  "abi": [
    {
      "inputs": [
        {
          "internalType": "address",
          "name": "_controller",
          "type": "address"
        },
        {
          "internalType": "address",
          "name": "_oracle",
          "type": "address"
        }
      ],
      "stateMutability": "nonpayable",
      "type": "constructor"
    },
    {
      "anonymous": false,
      "inputs": [
        {
          "indexed": true,
          "internalType": "address",
          "name": "previousOwner",
          "type": "address"
        },
        {
          "indexed": true,
          "internalType": "address",
          "name": "newOwner",
          "type": "address"
        }
      ],
      "name": "OwnershipTransferred",
      "type": "event"
    },
    {
      "inputs": [],
      "name": "controller",
      "outputs": [
        {
          "internalType": "address",
          "name": "",
          "type": "address"
        }
      ],
      "stateMutability": "view",
      "type": "function"
    },
    {
      "inputs": [],
      "name": "ethUSDCUniswapV3Pool",
      "outputs": [
        {
          "internalType": "address",
          "name": "",
          "type": "address"
        }
      ],
      "stateMutability": "view",
      "type": "function"
    },
    {
      "inputs": [],
      "name": "oracle",
      "outputs": [
        {
          "internalType": "address",
          "name": "",
          "type": "address"
        }
      ],
      "stateMutability": "view",
      "type": "function"
    },
    {
      "inputs": [],
      "name": "owner",
      "outputs": [
        {
          "internalType": "address",
          "name": "",
          "type": "address"
        }
      ],
      "stateMutability": "view",
      "type": "function"
    },
    {
      "inputs": [],
      "name": "renounceOwnership",
      "outputs": [],
      "stateMutability": "nonpayable",
      "type": "function"
    },
    {
      "inputs": [],
      "name": "ropstenEthUsdcPoolAddress",
      "outputs": [
        {
          "internalType": "address",
          "name": "",
          "type": "address"
        }
      ],
      "stateMutability": "view",
      "type": "function"
    },
    {
      "inputs": [],
      "name": "ropstenNetControllerAddress",
      "outputs": [
        {
          "internalType": "address",
          "name": "",
          "type": "address"
        }
      ],
      "stateMutability": "view",
      "type": "function"
    },
    {
      "inputs": [],
      "name": "ropstenNetSqueethUniPoolAddress",
      "outputs": [
        {
          "internalType": "address",
          "name": "",
          "type": "address"
        }
      ],
      "stateMutability": "view",
      "type": "function"
    },
    {
      "inputs": [],
      "name": "ropstenOracleAddress",
      "outputs": [
        {
          "internalType": "address",
          "name": "",
          "type": "address"
        }
      ],
      "stateMutability": "view",
      "type": "function"
    },
    {
      "inputs": [],
      "name": "ropstenQuoterAddress",
      "outputs": [
        {
          "internalType": "address",
          "name": "",
          "type": "address"
        }
      ],
      "stateMutability": "view",
      "type": "function"
    },
    {
      "inputs": [],
      "name": "ropstenSqueethAddress",
      "outputs": [
        {
          "internalType": "address",
          "name": "",
          "type": "address"
        }
      ],
      "stateMutability": "view",
      "type": "function"
    },
    {
      "inputs": [],
      "name": "ropstenSwapRouterAddress",
      "outputs": [
        {
          "internalType": "address",
          "name": "",
          "type": "address"
        }
      ],
      "stateMutability": "view",
      "type": "function"
    },
    {
      "inputs": [],
      "name": "squeethControllerAddress",
      "outputs": [
        {
          "internalType": "address",
          "name": "",
          "type": "address"
        }
      ],
      "stateMutability": "view",
      "type": "function"
    },
    {
      "inputs": [],
      "name": "squeethETHUniswapV3Pool",
      "outputs": [
        {
          "internalType": "address",
          "name": "",
          "type": "address"
        }
      ],
      "stateMutability": "view",
      "type": "function"
    },
    {
      "inputs": [],
      "name": "squeethOracleAddress",
      "outputs": [
        {
          "internalType": "address",
          "name": "",
          "type": "address"
        }
      ],
      "stateMutability": "view",
      "type": "function"
    },
    {
      "inputs": [],
      "name": "squeethTokenAddress",
      "outputs": [
        {
          "internalType": "address",
          "name": "",
          "type": "address"
        }
      ],
      "stateMutability": "view",
      "type": "function"
    },
    {
      "inputs": [
        {
          "internalType": "address",
          "name": "newOwner",
          "type": "address"
        }
      ],
      "name": "transferOwnership",
      "outputs": [],
      "stateMutability": "nonpayable",
      "type": "function"
    },
    {
      "inputs": [],
      "name": "usdcTokenAddress",
      "outputs": [
        {
          "internalType": "address",
          "name": "",
          "type": "address"
        }
      ],
      "stateMutability": "view",
      "type": "function"
    },
    {
      "inputs": [],
      "name": "wethTokenAddress",
      "outputs": [
        {
          "internalType": "address",
          "name": "",
          "type": "address"
        }
      ],
      "stateMutability": "view",
      "type": "function"
    },
    {
      "inputs": [
        {
          "internalType": "uint32",
          "name": "_period",
          "type": "uint32"
        }
      ],
      "name": "getIndexPrice",
      "outputs": [
        {
          "internalType": "uint256",
          "name": "",
          "type": "uint256"
        }
      ],
      "stateMutability": "view",
      "type": "function"
    },
    {
      "inputs": [
        {
          "internalType": "uint32",
          "name": "_period",
          "type": "uint32"
        }
      ],
      "name": "getDenormalizedMarkPrice",
      "outputs": [
        {
          "internalType": "uint256",
          "name": "",
          "type": "uint256"
        }
      ],
      "stateMutability": "view",
      "type": "function"
    },
    {
      "inputs": [
        {
          "internalType": "address",
          "name": "_pool",
          "type": "address"
        },
        {
          "internalType": "address",
          "name": "_base",
          "type": "address"
        },
        {
          "internalType": "address",
          "name": "_quote",
          "type": "address"
        },
        {
          "internalType": "uint32",
          "name": "_period",
          "type": "uint32"
        },
        {
          "internalType": "bool",
          "name": "_checkPeriod",
          "type": "bool"
        }
      ],
      "name": "getTwap",
      "outputs": [
        {
          "internalType": "uint256",
          "name": "",
          "type": "uint256"
        }
      ],
      "stateMutability": "view",
      "type": "function"
    },
    {
      "inputs": [
        {
          "internalType": "address",
          "name": "_pool",
          "type": "address"
        },
        {
          "internalType": "address",
          "name": "_base",
          "type": "address"
        },
        {
          "internalType": "address",
          "name": "_quote",
          "type": "address"
        },
        {
          "internalType": "uint32",
          "name": "_secondsAgoToStartOfTwap",
          "type": "uint32"
        },
        {
          "internalType": "uint32",
          "name": "_secondsAgoToEndOfTwap",
          "type": "uint32"
        }
      ],
      "name": "getHistoricalTwap",
      "outputs": [
        {
          "internalType": "uint256",
          "name": "",
          "type": "uint256"
        }
      ],
      "stateMutability": "view",
      "type": "function"
    },
    {
      "inputs": [
        {
          "internalType": "address",
          "name": "_pool",
          "type": "address"
        }
      ],
      "name": "getMaxPeriod",
      "outputs": [
        {
          "internalType": "uint32",
          "name": "",
          "type": "uint32"
        }
      ],
      "stateMutability": "view",
      "type": "function"
    },
    {
      "inputs": [],
      "name": "getCurrentFundingRate",
      "outputs": [
        {
          "internalType": "uint256",
          "name": "",
          "type": "uint256"
        }
      ],
      "stateMutability": "view",
      "type": "function"
    },
    {
      "inputs": [
        {
          "internalType": "uint32",
          "name": "_period",
          "type": "uint32"
        }
      ],
      "name": "getDenormalizedMarkForFunding",
      "outputs": [
        {
          "internalType": "uint256",
          "name": "",
          "type": "uint256"
        }
      ],
      "stateMutability": "view",
      "type": "function"
    }
  ],
  "bytecode": "0x6102806040527364187ae08781b09368e6253f9e94951243a493d560c0527365d66c76447ccb45daf1e8044e918fa786a483a160e05273f1b99e3e573a1a9c5e6b2ce818b617f0e664e86b6101005273c02aaa39b223fe8d0a0e5c4f27ead9083c756cc26101205273a0b86991c6218b36c1d19d4a2e9eb0ce3606eb48610140527382c427adfdf2d245ec51d8046b41c4ee87f0d29c61016052738ad599c3a0ff1de082011efddc58f1908eb6e6d8610180527359f0c781a6ec387f09c40faa22b7477a2950d2096101a05273921c384f79de1bae96d6f33e3e5b8d0b2b34cb686101c052738356abc730a218c24446c2c85708f373f354f0d86101e05273bd9f4be886653177d22fa9c79fd0dfc41407fc896102005273267aeb76beb6dc7ab0d88feeac8a948e237e2d696102205273a4222f78d23593e82aa74742d25d06720dca4ab76102405273528a19a3e88861e7298c86fe5490b8ec007a42046102605234801561016d57600080fd5b50604051610edf380380610edf83398101604081905261018c91610218565b610195336101ac565b6001600160a01b039182166080521660a05261024b565b600080546001600160a01b038381166001600160a01b0319831681178455604051919092169283917f8be0079c531659141344cd1fd0a4f28419497f9722a3daafe3b4186f6b6457e09190a35050565b80516001600160a01b038116811461021357600080fd5b919050565b6000806040838503121561022b57600080fd5b610234836101fc565b9150610242602084016101fc565b90509250929050565b60805160a05160c05160e05161010051610120516101405161016051610180516101a0516101c0516101e05161020051610220516102405161026051610ba661033960003960006103df015260006102ee01526000610224015260006103b8015260006102a0015260006102c701526000610440015260006101fd015260006104190152600061031f015260006101be0152600061048f0152600061036d0152600061025e015260008181610346015281816106a70152818161082501526108780152600081816104c901528181610509015281816105a1015281816105dc01526107a80152610ba66000f3fe608060405234801561001057600080fd5b506004361061018e5760003560e01c80637dc0d1d0116100de578063cce79bd511610097578063de5a6e2211610071578063de5a6e2214610462578063e2c14ae11461048a578063f2fde38b146104b1578063f77c4791146104c457600080fd5b8063cce79bd514610401578063d739556514610414578063ddb0d9cc1461043b57600080fd5b80637dc0d1d0146103415780638aa8f3cd146103685780638cf1fc551461038f5780638da5cb5b146103a2578063ac12b8aa146103b3578063b1117520146103da57600080fd5b80634469fc9d1161014b578063639605f111610125578063639605f1146102c257806369004f10146102e9578063715018a61461031057806377b53ece1461031a57600080fd5b80634469fc9d146102805780634ac78d11146102885780634e2228e71461029b57600080fd5b806302f302c9146101935780630f9dad71146101b957806316a44dff146101f85780632f8f1c911461021f578063377a193614610246578063444fbb9714610259575b600080fd5b6101a66101a1366004610a12565b6104eb565b6040519081526020015b60405180910390f35b6101e07f000000000000000000000000000000000000000000000000000000000000000081565b6040516001600160a01b0390911681526020016101b0565b6101e07f000000000000000000000000000000000000000000000000000000000000000081565b6101e07f000000000000000000000000000000000000000000000000000000000000000081565b6101a6610254366004610a12565b610583565b6101e07f000000000000000000000000000000000000000000000000000000000000000081565b6101a66105d8565b6101a6610296366004610a52565b610661565b6101e07f000000000000000000000000000000000000000000000000000000000000000081565b6101e07f000000000000000000000000000000000000000000000000000000000000000081565b6101e07f000000000000000000000000000000000000000000000000000000000000000081565b61031861071f565b005b6101e07f000000000000000000000000000000000000000000000000000000000000000081565b6101e07f000000000000000000000000000000000000000000000000000000000000000081565b6101e07f000000000000000000000000000000000000000000000000000000000000000081565b6101a661039d366004610a12565b61078a565b6000546001600160a01b03166101e0565b6101e07f000000000000000000000000000000000000000000000000000000000000000081565b6101e07f000000000000000000000000000000000000000000000000000000000000000081565b6101a661040f366004610abd565b6107df565b6101e07f000000000000000000000000000000000000000000000000000000000000000081565b6101e07f000000000000000000000000000000000000000000000000000000000000000081565b610475610470366004610b1f565b610856565b60405163ffffffff90911681526020016101b0565b6101e07f000000000000000000000000000000000000000000000000000000000000000081565b6103186104bf366004610b1f565b6108e5565b6101e07f000000000000000000000000000000000000000000000000000000000000000081565b60405163ee3189ff60e01b815263ffffffff821660048201526000907f00000000000000000000000000000000000000000000000000000000000000006001600160a01b03169063ee3189ff906024015b602060405180830381865afa158015610559573d6000803e3d6000fd5b505050506040513d601f19601f8201168201806040525081019061057d9190610b3a565b92915050565b604051631bbd0c9b60e11b815263ffffffff821660048201526000907f00000000000000000000000000000000000000000000000000000000000000006001600160a01b03169063377a19369060240161053c565b60007f00000000000000000000000000000000000000000000000000000000000000006001600160a01b03166324f5f5316040518163ffffffff1660e01b8152600401602060405180830381865afa158015610638573d6000803e3d6000fd5b505050506040513d601f19601f8201168201806040525081019061065c9190610b3a565b905090565b604051634ac78d1160e01b81526001600160a01b0386811660048301528581166024830152848116604483015263ffffffff8085166064840152831660848301526000917f000000000000000000000000000000000000000000000000000000000000000090911690634ac78d119060a4015b602060405180830381865afa1580156106f1573d6000803e3d6000fd5b505050506040513d601f19601f820116820180604052508101906107159190610b3a565b9695505050505050565b6000546001600160a01b0316331461077e5760405162461bcd60e51b815260206004820181905260248201527f4f776e61626c653a2063616c6c6572206973206e6f7420746865206f776e657260448201526064015b60405180910390fd5b61078860006109b0565b565b604051638e7cb6e160e01b815263ffffffff821660048201526000907f00000000000000000000000000000000000000000000000000000000000000006001600160a01b031690638e7cb6e19060240161053c565b604051631be0874f60e11b81526001600160a01b0386811660048301528581166024830152848116604483015263ffffffff8416606483015282151560848301526000917f0000000000000000000000000000000000000000000000000000000000000000909116906337c10e9e9060a4016106d4565b604051636f2d371160e11b81526001600160a01b0382811660048301526000917f00000000000000000000000000000000000000000000000000000000000000009091169063de5a6e2290602401602060405180830381865afa1580156108c1573d6000803e3d6000fd5b505050506040513d601f19601f8201168201806040525081019061057d9190610b53565b6000546001600160a01b0316331461093f5760405162461bcd60e51b815260206004820181905260248201527f4f776e61626c653a2063616c6c6572206973206e6f7420746865206f776e65726044820152606401610775565b6001600160a01b0381166109a45760405162461bcd60e51b815260206004820152602660248201527f4f776e61626c653a206e6577206f776e657220697320746865207a65726f206160448201526564647265737360d01b6064820152608401610775565b6109ad816109b0565b50565b600080546001600160a01b038381166001600160a01b0319831681178455604051919092169283917f8be0079c531659141344cd1fd0a4f28419497f9722a3daafe3b4186f6b6457e09190a35050565b63ffffffff811681146109ad57600080fd5b600060208284031215610a2457600080fd5b8135610a2f81610a00565b9392505050565b80356001600160a01b0381168114610a4d57600080fd5b919050565b600080600080600060a08688031215610a6a57600080fd5b610a7386610a36565b9450610a8160208701610a36565b9350610a8f60408701610a36565b92506060860135610a9f81610a00565b91506080860135610aaf81610a00565b809150509295509295909350565b600080600080600060a08688031215610ad557600080fd5b610ade86610a36565b9450610aec60208701610a36565b9350610afa60408701610a36565b92506060860135610b0a81610a00565b915060808601358015158114610aaf57600080fd5b600060208284031215610b3157600080fd5b610a2f82610a36565b600060208284031215610b4c57600080fd5b5051919050565b600060208284031215610b6557600080fd5b8151610a2f81610a0056fea2646970667358221220a5cb0dae5e730ff47bb257c8301aeb502b7c386ee3dbc2e9c88505e9f6ff791064736f6c634300080b0033",
  "immutableReferences": {
    "75": [
      {
        "length": 32,
        "start": 1225
      },
      {
        "length": 32,
        "start": 1289
      },
      {
        "length": 32,
        "start": 1441
      },
      {
        "length": 32,
        "start": 1500
      },
      {
        "length": 32,
        "start": 1960
      }
    ],
    "77": [
      {
        "length": 32,
        "start": 838
      },
      {
        "length": 32,
        "start": 1703
      },
      {
        "length": 32,
        "start": 2085
      },
      {
        "length": 32,
        "start": 2168
      }
    ],
    "80": [
      {
        "length": 32,
        "start": 606
      }
    ],
    "83": [
      {
        "length": 32,
        "start": 877
      }
    ],
    "86": [
      {
        "length": 32,
        "start": 1167
      }
    ],
    "89": [
      {
        "length": 32,
        "start": 446
      }
    ],
    "92": [
      {
        "length": 32,
        "start": 799
      }
    ],
    "95": [
      {
        "length": 32,
        "start": 1049
      }
    ],
    "98": [
      {
        "length": 32,
        "start": 509
      }
    ],
    "101": [
      {
        "length": 32,
        "start": 1088
      }
    ],
    "104": [
      {
        "length": 32,
        "start": 711
      }
    ],
    "107": [
      {
        "length": 32,
        "start": 672
      }
    ],
    "110": [
      {
        "length": 32,
        "start": 952
      }
    ],
    "113": [
      {
        "length": 32,
        "start": 548
      }
    ],
    "116": [
      {
        "length": 32,
        "start": 750
      }
    ],
    "119": [
      {
        "length": 32,
        "start": 991
      }
    ]
  },
  "source": "// SPDX-License-Identifier: MIT\r\npragma solidity ^0.8.0;\r\npragma abicoder v2;\r\n\r\nimport '@openzeppelin/contracts/access/Ownable.sol';\r\n\r\n/**\r\n* @dev This interacts with the specified squeeth protocol controller functions\r\n*/\r\n\r\ninterface ControllerInterface{\r\n    function getIndex(uint256 _period) external view returns(uint256);\r\n    function getDenormalizedMark(uint32 _period) external view returns(uint256);\r\n    function getExpectedNormalizationFactor() external view returns (uint256);\r\n    function getDenormalizedMarkForFunding(uint32 _period) external view returns (uint256);\r\n}\r\n\r\n/**\r\n* @dev This interacts with the specified squeeth protocol oracle functions\r\n*/\r\ninterface OracleIterface{\r\n    function getTwap(\r\n        address _pool,\r\n        address _base,\r\n        address _quote,\r\n        uint _period,\r\n        bool _checkPeriod\r\n    )external view returns(uint256);\r\n\r\n    function getHistoricalTwap(\r\n        address _pool,\r\n        address _base,\r\n        address _quote,\r\n        uint32 _secondsAgoToStartOfTwap,\r\n        uint32 _secondsAgoToEndOfTwap\r\n    ) external view returns(uint256);\r\n\r\n    function getMaxPeriod(address _pool) external view returns (uint32);\r\n}\r\n\r\n/**\r\n* @title NewPriceFeedConsumer\r\n* @notice intercacts with the squeeth protocol and oracle to fetch Opyn Squeeth and ETH^2 prices\r\n* and historical data\r\n*/\r\ncontract MainPriceFeedConsumer is Ownable{\r\n\r\n    address public immutable controller; //the controller address\r\n    address public immutable oracle; // the oracle address\r\n\r\n    address public immutable squeethControllerAddress = 0x64187ae08781B09368e6253F9E94951243A493D5;\r\n    address public immutable squeethOracleAddress = 0x65D66c76447ccB45dAf1e8044e918fA786A483A1;\r\n    address public immutable squeethTokenAddress = 0xf1B99e3E573A1a9C5E6B2Ce818b617F0E664E86B;\r\n    address public immutable wethTokenAddress = 0xC02aaA39b223FE8D0A0e5C4F27eAD9083C756Cc2;\r\n    address public immutable usdcTokenAddress = 0xA0b86991c6218b36c1d19D4a2e9Eb0cE3606eB48;\r\n    address public immutable squeethETHUniswapV3Pool = 0x82c427AdFDf2d245Ec51D8046b41c4ee87F0d29C;\r\n    address public immutable ethUSDCUniswapV3Pool = 0x8ad599c3A0ff1De082011EFDDc58f1908eb6e6D8;\r\n    address public immutable ropstenNetControllerAddress = 0x59F0c781a6eC387F09C40FAA22b7477a2950d209;\r\n    address public immutable ropstenNetSqueethUniPoolAddress = 0x921c384F79de1BAe96d6f33E3E5b8d0B2B34cb68;\r\n    address public immutable ropstenEthUsdcPoolAddress = 0x8356AbC730a218c24446C2c85708F373f354F0D8;\r\n    address public immutable ropstenOracleAddress = 0xBD9F4bE886653177D22fA9c79FD0DFc41407fC89;\r\n    address public immutable ropstenQuoterAddress = 0x267aEB76BEb6DC7Ab0D88FeEaC8A948e237e2d69;\r\n    //address public immutable ropstenUsdcAddress = 0x27415c30d8c87437becbd4f98474f26e712047f4;\r\n    address public immutable ropstenSqueethAddress = 0xa4222f78d23593e82Aa74742d25D06720DCa4ab7;\r\n    //address public immutable ropstenWethAddress = 0xc778417e063141139fce010982780140aa0cd5ab;\r\n    address public immutable ropstenSwapRouterAddress = 0x528a19A3e88861E7298C86fE5490B8Ec007a4204;\r\n\r\n    constructor(address _controller, address _oracle){\r\n        controller = _controller;\r\n        oracle = _oracle;\r\n    }\r\n\r\n    /**\r\n     * @notice get the index price of the powerPerp, scaled down\r\n     * @dev the index price is scaled down by INDEX_SCALE in the associated PowerXBase library\r\n     * @dev this is the index price used when calculating funding and for collateralization\r\n     * @param _period period which you want to calculate twap with\r\n     * @return index price denominated in $USD, scaled by 1e18\r\n     */\r\n    function getIndexPrice(uint32 _period) public view returns(uint256){\r\n        return ControllerInterface(controller).getIndex(_period);\r\n    }\r\n\r\n    /**\r\n     * @notice get the expected mark price of powerPerp after funding has been applied\r\n     * @param _period period of time for the twap in seconds\r\n     * @return mark price denominated in $USD, scaled by 1e18\r\n     */\r\n    function getDenormalizedMarkPrice(uint32 _period) public view returns(uint256){\r\n        return ControllerInterface(controller).getDenormalizedMark(_period);\r\n    }\r\n\r\n    /**\r\n     * @notice get twap converted with base & quote token decimals\r\n     * @dev if period is longer than the current timestamp - first timestamp stored in the pool, this will revert with \"OLD\"\r\n     * @param _pool uniswap pool address\r\n     * @param _base base currency. to get eth/usd price, eth is base token\r\n     * @param _quote quote currency. to get eth/usd price, usd is the quote currency\r\n     * @param _period number of seconds in the past to start calculating time-weighted average\r\n     * @return price of 1 base currency in quote currency. scaled by 1e18\r\n     */\r\n    function getTwap(\r\n        address _pool,\r\n        address _base,\r\n        address _quote,\r\n        uint32 _period,\r\n        bool _checkPeriod\r\n    ) public view returns(uint256){\r\n        return OracleIterface(oracle).getTwap(_pool, _base, _quote,_period, _checkPeriod) ;\r\n    }\r\n\r\n    /**\r\n     * @notice get twap for a specific period of time, converted with base & quote token decimals\r\n     * @dev if the _secondsAgoToStartOfTwap period is longer than the current timestamp - first timestamp stored in the pool, this will revert with \"OLD\"\r\n     * @param _pool uniswap pool address\r\n     * @param _base base currency. to get eth/usd price, eth is base token\r\n     * @param _quote quote currency. to get eth/usd price, usd is the quote currency\r\n     * @param _secondsAgoToStartOfTwap amount of seconds in the past to start calculating time-weighted average\r\n     * @param _secondsAgoToEndOfTwap amount of seconds in the past to end calculating time-weighted average\r\n     * @return price of 1 base currency in quote currency. scaled by 1e18\r\n     */\r\n    function getHistoricalTwap(\r\n        address _pool,\r\n        address _base,\r\n        address _quote,\r\n        uint32 _secondsAgoToStartOfTwap,\r\n        uint32 _secondsAgoToEndOfTwap\r\n        ) public view returns(uint256 ){\r\n            return OracleIterface(oracle).getHistoricalTwap(_pool,_base,_quote,_secondsAgoToStartOfTwap,_secondsAgoToEndOfTwap);\r\n    }\r\n\r\n    /**\r\n     * @notice get the max period that can be used to request twap\r\n     * @param _pool uniswap pool address\r\n     * @return max period can be used to request twap\r\n     */\r\n    function getMaxPeriod(address _pool) public view returns (uint32) {\r\n        return OracleIterface(oracle).getMaxPeriod(_pool);\r\n    }\r\n\r\n    /**\r\n     * @notice returns the expected normalization factor, if the funding is paid right now\r\n     * @dev can be used for on-chain and off-chain calculations\r\n     */\r\n    function getCurrentFundingRate() public view returns (uint256) {\r\n        return ControllerInterface(controller).getExpectedNormalizationFactor();\r\n    }\r\n\r\n    /**\r\n     * @notice get the mark price of powerPerp before funding has been applied\r\n     * @dev this is the mark that would be used to calculate a new normalization factor if funding was calculated now\r\n     * @param _period period which you want to calculate twap with\r\n     * @return mark price denominated in $USD, scaled by 1e18\r\n     */\r\n    function getDenormalizedMarkForFunding(uint32 _period) external view returns (uint256) {\r\n        return ControllerInterface(controller).getDenormalizedMarkForFunding(_period);\r\n    }\r\n }   ",
  "sourcePath": "D:/Dickens/Programming/Blockchain/Projects/Interviews/Laevitas Defi Protocol/contracts/MainPriceFeedConsumer.sol",
  "compiler": {
    "name": "solc",
    "version": "0.8.11+commit.d7f03943.Emscripten.clang"
  },
  "schemaVersion": "3.4.1",
  "updatedAt": "2022-01-23T20:20:14.434Z",
  "devdoc": {
    "kind": "dev",
    "methods": {
      "getCurrentFundingRate()": {
        "details": "can be used for on-chain and off-chain calculations"
      },
      "getDenormalizedMarkForFunding(uint32)": {
        "details": "this is the mark that would be used to calculate a new normalization factor if funding was calculated now",
        "params": {
          "_period": "period which you want to calculate twap with"
        },
        "returns": {
          "_0": "mark price denominated in $USD, scaled by 1e18"
        }
      },
      "getDenormalizedMarkPrice(uint32)": {
        "params": {
          "_period": "period of time for the twap in seconds"
        },
        "returns": {
          "_0": "mark price denominated in $USD, scaled by 1e18"
        }
      },
      "getHistoricalTwap(address,address,address,uint32,uint32)": {
        "details": "if the _secondsAgoToStartOfTwap period is longer than the current timestamp - first timestamp stored in the pool, this will revert with \"OLD\"",
        "params": {
          "_base": "base currency. to get eth/usd price, eth is base token",
          "_pool": "uniswap pool address",
          "_quote": "quote currency. to get eth/usd price, usd is the quote currency",
          "_secondsAgoToEndOfTwap": "amount of seconds in the past to end calculating time-weighted average",
          "_secondsAgoToStartOfTwap": "amount of seconds in the past to start calculating time-weighted average"
        },
        "returns": {
          "_0": "price of 1 base currency in quote currency. scaled by 1e18"
        }
      },
      "getIndexPrice(uint32)": {
        "details": "the index price is scaled down by INDEX_SCALE in the associated PowerXBase librarythis is the index price used when calculating funding and for collateralization",
        "params": {
          "_period": "period which you want to calculate twap with"
        },
        "returns": {
          "_0": "index price denominated in $USD, scaled by 1e18"
        }
      },
      "getMaxPeriod(address)": {
        "params": {
          "_pool": "uniswap pool address"
        },
        "returns": {
          "_0": "max period can be used to request twap"
        }
      },
      "getTwap(address,address,address,uint32,bool)": {
        "details": "if period is longer than the current timestamp - first timestamp stored in the pool, this will revert with \"OLD\"",
        "params": {
          "_base": "base currency. to get eth/usd price, eth is base token",
          "_period": "number of seconds in the past to start calculating time-weighted average",
          "_pool": "uniswap pool address",
          "_quote": "quote currency. to get eth/usd price, usd is the quote currency"
        },
        "returns": {
          "_0": "price of 1 base currency in quote currency. scaled by 1e18"
        }
      },
      "owner()": {
        "details": "Returns the address of the current owner."
      },
      "renounceOwnership()": {
        "details": "Leaves the contract without owner. It will not be possible to call `onlyOwner` functions anymore. Can only be called by the current owner. NOTE: Renouncing ownership will leave the contract without an owner, thereby removing any functionality that is only available to the owner."
      },
      "transferOwnership(address)": {
        "details": "Transfers ownership of the contract to a new account (`newOwner`). Can only be called by the current owner."
      }
    },
    "title": "NewPriceFeedConsumer",
    "version": 1
  },
  "userdoc": {
    "kind": "user",
    "methods": {
      "getCurrentFundingRate()": {
        "notice": "returns the expected normalization factor, if the funding is paid right now"
      },
      "getDenormalizedMarkForFunding(uint32)": {
        "notice": "get the mark price of powerPerp before funding has been applied"
      },
      "getDenormalizedMarkPrice(uint32)": {
        "notice": "get the expected mark price of powerPerp after funding has been applied"
      },
      "getHistoricalTwap(address,address,address,uint32,uint32)": {
        "notice": "get twap for a specific period of time, converted with base & quote token decimals"
      },
      "getIndexPrice(uint32)": {
        "notice": "get the index price of the powerPerp, scaled down"
      },
      "getMaxPeriod(address)": {
        "notice": "get the max period that can be used to request twap"
      },
      "getTwap(address,address,address,uint32,bool)": {
        "notice": "get twap converted with base & quote token decimals"
      }
    },
    "notice": "intercacts with the squeeth protocol and oracle to fetch Opyn Squeeth and ETH^2 prices and historical data",
    "version": 1
  }
}