{
  "contractName": "MockSqueethOracle",
  "abi": [
    {
      "anonymous": false,
      "inputs": [
        {
          "indexed": true,
          "internalType": "address",
          "name": "previousOwner",
          "type": "address"
        },
        {
          "indexed": true,
          "internalType": "address",
          "name": "newOwner",
          "type": "address"
        }
      ],
      "name": "OwnershipTransferred",
      "type": "event"
    },
    {
      "inputs": [],
      "name": "MAX_POOL_PERIOD",
      "outputs": [
        {
          "internalType": "uint32",
          "name": "",
          "type": "uint32"
        }
      ],
      "stateMutability": "view",
      "type": "function",
      "constant": true
    },
    {
      "inputs": [],
      "name": "owner",
      "outputs": [
        {
          "internalType": "address",
          "name": "",
          "type": "address"
        }
      ],
      "stateMutability": "view",
      "type": "function",
      "constant": true
    },
    {
      "inputs": [
        {
          "internalType": "address",
          "name": "",
          "type": "address"
        }
      ],
      "name": "poolPeriodPrice",
      "outputs": [
        {
          "internalType": "uint256",
          "name": "",
          "type": "uint256"
        }
      ],
      "stateMutability": "view",
      "type": "function",
      "constant": true
    },
    {
      "inputs": [
        {
          "internalType": "address",
          "name": "",
          "type": "address"
        }
      ],
      "name": "poolTick",
      "outputs": [
        {
          "internalType": "int24",
          "name": "",
          "type": "int24"
        }
      ],
      "stateMutability": "view",
      "type": "function",
      "constant": true
    },
    {
      "inputs": [],
      "name": "renounceOwnership",
      "outputs": [],
      "stateMutability": "nonpayable",
      "type": "function"
    },
    {
      "inputs": [
        {
          "internalType": "address",
          "name": "newOwner",
          "type": "address"
        }
      ],
      "name": "transferOwnership",
      "outputs": [],
      "stateMutability": "nonpayable",
      "type": "function"
    },
    {
      "inputs": [
        {
          "internalType": "address",
          "name": "_pool",
          "type": "address"
        },
        {
          "internalType": "uint256",
          "name": "_price",
          "type": "uint256"
        }
      ],
      "name": "setPrice",
      "outputs": [],
      "stateMutability": "nonpayable",
      "type": "function"
    },
    {
      "inputs": [
        {
          "internalType": "address",
          "name": "_pool",
          "type": "address"
        },
        {
          "internalType": "int24",
          "name": "_poolTick",
          "type": "int24"
        }
      ],
      "name": "setAverageTick",
      "outputs": [],
      "stateMutability": "nonpayable",
      "type": "function"
    },
    {
      "inputs": [
        {
          "internalType": "address",
          "name": "_pool",
          "type": "address"
        },
        {
          "internalType": "uint32",
          "name": "",
          "type": "uint32"
        }
      ],
      "name": "getTimeWeightedAverageTickSafe",
      "outputs": [
        {
          "internalType": "int24",
          "name": "",
          "type": "int24"
        }
      ],
      "stateMutability": "view",
      "type": "function",
      "constant": true
    },
    {
      "inputs": [
        {
          "internalType": "address",
          "name": "_pool",
          "type": "address"
        },
        {
          "internalType": "address",
          "name": "",
          "type": "address"
        },
        {
          "internalType": "address",
          "name": "",
          "type": "address"
        },
        {
          "internalType": "uint32",
          "name": "",
          "type": "uint32"
        },
        {
          "internalType": "bool",
          "name": "",
          "type": "bool"
        }
      ],
      "name": "getTwap",
      "outputs": [
        {
          "internalType": "uint256",
          "name": "",
          "type": "uint256"
        }
      ],
      "stateMutability": "view",
      "type": "function",
      "constant": true
    },
    {
      "inputs": [
        {
          "internalType": "address",
          "name": "",
          "type": "address"
        }
      ],
      "name": "getMaxPeriod",
      "outputs": [
        {
          "internalType": "uint32",
          "name": "",
          "type": "uint32"
        }
      ],
      "stateMutability": "pure",
      "type": "function",
      "constant": true
    }
  ],
  "bytecode": "0x608060405234801561001057600080fd5b5061001a3361001f565b61006f565b600080546001600160a01b038381166001600160a01b0319831681178455604051919092169283917f8be0079c531659141344cd1fd0a4f28419497f9722a3daafe3b4186f6b6457e09190a35050565b6105938061007e6000396000f3fe608060405234801561001057600080fd5b50600436106100a85760003560e01c8063715018a611610071578063715018a6146101675780638da5cb5b1461016f578063a0e3c1571461018a578063cce79bd5146101af578063de5a6e22146101dc578063f2fde38b146101f057600080fd5b8062e4768b146100ad5780630cdf87d2146100c25780634a0a96eb146100e45780634c040695146101265780636213a46e14610139575b600080fd5b6100c06100bb3660046103ea565b610203565b005b6100ca600181565b60405163ffffffff90911681526020015b60405180910390f35b6101136100f2366004610428565b506001600160a01b0316600090815260026020819052604090912054900b90565b60405160029190910b81526020016100db565b6100c061013436600461045b565b610252565b610159610147366004610498565b60016020526000908152604090205481565b6040519081526020016100db565b6100c06102ad565b6000546040516001600160a01b0390911681526020016100db565b610113610198366004610498565b600260208190526000918252604090912054900b81565b6101596101bd3660046104ba565b505050506001600160a01b031660009081526001602052604090205490565b6100ca6101ea366004610498565b50600190565b6100c06101fe366004610498565b6102e3565b6000546001600160a01b031633146102365760405162461bcd60e51b815260040161022d90610528565b60405180910390fd5b6001600160a01b03909116600090815260016020526040902055565b6000546001600160a01b0316331461027c5760405162461bcd60e51b815260040161022d90610528565b6001600160a01b03919091166000908152600260205260409020805462ffffff191662ffffff909216919091179055565b6000546001600160a01b031633146102d75760405162461bcd60e51b815260040161022d90610528565b6102e1600061037e565b565b6000546001600160a01b0316331461030d5760405162461bcd60e51b815260040161022d90610528565b6001600160a01b0381166103725760405162461bcd60e51b815260206004820152602660248201527f4f776e61626c653a206e6577206f776e657220697320746865207a65726f206160448201526564647265737360d01b606482015260840161022d565b61037b8161037e565b50565b600080546001600160a01b038381166001600160a01b0319831681178455604051919092169283917f8be0079c531659141344cd1fd0a4f28419497f9722a3daafe3b4186f6b6457e09190a35050565b80356001600160a01b03811681146103e557600080fd5b919050565b600080604083850312156103fd57600080fd5b610406836103ce565b946020939093013593505050565b803563ffffffff811681146103e557600080fd5b6000806040838503121561043b57600080fd5b610444836103ce565b915061045260208401610414565b90509250929050565b6000806040838503121561046e57600080fd5b610477836103ce565b915060208301358060020b811461048d57600080fd5b809150509250929050565b6000602082840312156104aa57600080fd5b6104b3826103ce565b9392505050565b600080600080600060a086880312156104d257600080fd5b6104db866103ce565b94506104e9602087016103ce565b93506104f7604087016103ce565b925061050560608701610414565b91506080860135801515811461051a57600080fd5b809150509295509295909350565b6020808252818101527f4f776e61626c653a2063616c6c6572206973206e6f7420746865206f776e657260408201526060019056fea26469706673582212208907254a9aee600f30bb19d71072e10ebf30280b8ae402b62243f933f116cd2f64736f6c634300080b0033",
  "immutableReferences": {},
  "source": "// SPDX-License-Identifier: MIT\r\npragma solidity ^0.8.0;\r\npragma abicoder v2;\r\n\r\nimport '@openzeppelin/contracts/access/Ownable.sol';\r\n\r\ncontract MockSqueethOracle is Ownable{\r\n    mapping(address => uint256) public poolPeriodPrice;\r\n    mapping(address => int24) public poolTick;\r\n    \r\n    uint32 public constant MAX_POOL_PERIOD = 1;\r\n\r\n    function setPrice(address _pool, uint256 _price) external onlyOwner {\r\n        poolPeriodPrice[_pool] = _price;\r\n    }\r\n\r\n    function setAverageTick(address _pool, int24 _poolTick) external onlyOwner{\r\n        poolTick[_pool] = _poolTick;\r\n    }\r\n\r\n    function getTimeWeightedAverageTickSafe(\r\n        address _pool,\r\n        uint32 /*_period*/\r\n    ) external view returns (int24) {\r\n        return poolTick[_pool];\r\n    }\r\n\r\n    function getTwap(\r\n        address _pool,\r\n        address,\r\n        address,\r\n        uint32,\r\n        bool\r\n    ) external view returns (uint256) {\r\n        return poolPeriodPrice[_pool];\r\n    }\r\n\r\n    function getMaxPeriod(address) external pure returns (uint32) {\r\n        return MAX_POOL_PERIOD;\r\n    }\r\n}",
  "sourcePath": "D:/Dickens/Programming/Blockchain/Projects/Interviews/Laevitas Defi Protocol/contracts/mocks/MockSqueethOracle.sol",
  "compiler": {
    "name": "solc",
    "version": "0.8.11+commit.d7f03943.Emscripten.clang"
  },
  "schemaVersion": "3.4.1",
  "updatedAt": "2022-01-23T02:40:11.668Z",
  "networkType": "ethereum",
  "devdoc": {
    "kind": "dev",
    "methods": {
      "owner()": {
        "details": "Returns the address of the current owner."
      },
      "renounceOwnership()": {
        "details": "Leaves the contract without owner. It will not be possible to call `onlyOwner` functions anymore. Can only be called by the current owner. NOTE: Renouncing ownership will leave the contract without an owner, thereby removing any functionality that is only available to the owner."
      },
      "transferOwnership(address)": {
        "details": "Transfers ownership of the contract to a new account (`newOwner`). Can only be called by the current owner."
      }
    },
    "version": 1
  },
  "userdoc": {
    "kind": "user",
    "methods": {},
    "version": 1
  }
}