{
  "contractName": "MockSqueethController",
  "abi": [
    {
      "inputs": [],
      "stateMutability": "nonpayable",
      "type": "constructor"
    },
    {
      "anonymous": false,
      "inputs": [
        {
          "indexed": true,
          "internalType": "address",
          "name": "user",
          "type": "address"
        },
        {
          "indexed": true,
          "internalType": "uint256",
          "name": "newFundingMarkPrice",
          "type": "uint256"
        },
        {
          "indexed": true,
          "internalType": "uint256",
          "name": "date",
          "type": "uint256"
        }
      ],
      "name": "NewDenormalizedMarkPriceForFunding",
      "type": "event"
    },
    {
      "anonymous": false,
      "inputs": [
        {
          "indexed": true,
          "internalType": "address",
          "name": "caller",
          "type": "address"
        },
        {
          "indexed": true,
          "internalType": "uint256",
          "name": "newIndex",
          "type": "uint256"
        },
        {
          "indexed": true,
          "internalType": "uint256",
          "name": "date",
          "type": "uint256"
        }
      ],
      "name": "NewIndex",
      "type": "event"
    },
    {
      "anonymous": false,
      "inputs": [
        {
          "indexed": true,
          "internalType": "address",
          "name": "user",
          "type": "address"
        },
        {
          "indexed": true,
          "internalType": "uint256",
          "name": "newMarkprice",
          "type": "uint256"
        },
        {
          "indexed": true,
          "internalType": "uint256",
          "name": "date",
          "type": "uint256"
        }
      ],
      "name": "NewMarkPrice",
      "type": "event"
    },
    {
      "anonymous": false,
      "inputs": [
        {
          "indexed": true,
          "internalType": "address",
          "name": "user",
          "type": "address"
        },
        {
          "indexed": true,
          "internalType": "uint256",
          "name": "newTxPeriod",
          "type": "uint256"
        },
        {
          "indexed": true,
          "internalType": "uint256",
          "name": "date",
          "type": "uint256"
        }
      ],
      "name": "NewTransactionPeriod",
      "type": "event"
    },
    {
      "anonymous": false,
      "inputs": [
        {
          "indexed": true,
          "internalType": "address",
          "name": "previousOwner",
          "type": "address"
        },
        {
          "indexed": true,
          "internalType": "address",
          "name": "newOwner",
          "type": "address"
        }
      ],
      "name": "OwnershipTransferred",
      "type": "event"
    },
    {
      "inputs": [],
      "name": "currentPosition",
      "outputs": [
        {
          "internalType": "uint256",
          "name": "",
          "type": "uint256"
        }
      ],
      "stateMutability": "view",
      "type": "function",
      "constant": true
    },
    {
      "inputs": [
        {
          "internalType": "uint256",
          "name": "",
          "type": "uint256"
        }
      ],
      "name": "denormalizedMarkPrice",
      "outputs": [
        {
          "internalType": "uint256",
          "name": "",
          "type": "uint256"
        }
      ],
      "stateMutability": "view",
      "type": "function",
      "constant": true
    },
    {
      "inputs": [
        {
          "internalType": "uint256",
          "name": "",
          "type": "uint256"
        }
      ],
      "name": "denormalizedMarkPriceForFunding",
      "outputs": [
        {
          "internalType": "uint256",
          "name": "",
          "type": "uint256"
        }
      ],
      "stateMutability": "view",
      "type": "function",
      "constant": true
    },
    {
      "inputs": [
        {
          "internalType": "uint256",
          "name": "",
          "type": "uint256"
        }
      ],
      "name": "indexByDuration",
      "outputs": [
        {
          "internalType": "uint256",
          "name": "",
          "type": "uint256"
        }
      ],
      "stateMutability": "view",
      "type": "function",
      "constant": true
    },
    {
      "inputs": [
        {
          "internalType": "uint256",
          "name": "",
          "type": "uint256"
        }
      ],
      "name": "isExistingMarkPricePeriod",
      "outputs": [
        {
          "internalType": "bool",
          "name": "",
          "type": "bool"
        }
      ],
      "stateMutability": "view",
      "type": "function",
      "constant": true
    },
    {
      "inputs": [],
      "name": "owner",
      "outputs": [
        {
          "internalType": "address",
          "name": "",
          "type": "address"
        }
      ],
      "stateMutability": "view",
      "type": "function",
      "constant": true
    },
    {
      "inputs": [],
      "name": "renounceOwnership",
      "outputs": [],
      "stateMutability": "nonpayable",
      "type": "function"
    },
    {
      "inputs": [],
      "name": "totalIndexPrices",
      "outputs": [
        {
          "internalType": "uint256",
          "name": "",
          "type": "uint256"
        }
      ],
      "stateMutability": "view",
      "type": "function",
      "constant": true
    },
    {
      "inputs": [],
      "name": "totalMarkPrices",
      "outputs": [
        {
          "internalType": "uint256",
          "name": "",
          "type": "uint256"
        }
      ],
      "stateMutability": "view",
      "type": "function",
      "constant": true
    },
    {
      "inputs": [],
      "name": "transactionPeriod",
      "outputs": [
        {
          "internalType": "uint256",
          "name": "",
          "type": "uint256"
        }
      ],
      "stateMutability": "view",
      "type": "function",
      "constant": true
    },
    {
      "inputs": [
        {
          "internalType": "address",
          "name": "newOwner",
          "type": "address"
        }
      ],
      "name": "transferOwnership",
      "outputs": [],
      "stateMutability": "nonpayable",
      "type": "function"
    },
    {
      "inputs": [],
      "name": "volatilityPrice",
      "outputs": [
        {
          "internalType": "uint256",
          "name": "",
          "type": "uint256"
        }
      ],
      "stateMutability": "view",
      "type": "function",
      "constant": true
    },
    {
      "inputs": [
        {
          "internalType": "uint256",
          "name": "_period",
          "type": "uint256"
        }
      ],
      "name": "setTransactionPeriod",
      "outputs": [
        {
          "internalType": "bool",
          "name": "",
          "type": "bool"
        }
      ],
      "stateMutability": "nonpayable",
      "type": "function"
    },
    {
      "inputs": [
        {
          "internalType": "uint256",
          "name": "_period",
          "type": "uint256"
        }
      ],
      "name": "setIndex",
      "outputs": [
        {
          "internalType": "bool",
          "name": "",
          "type": "bool"
        }
      ],
      "stateMutability": "nonpayable",
      "type": "function"
    },
    {
      "inputs": [
        {
          "internalType": "uint256",
          "name": "_period",
          "type": "uint256"
        }
      ],
      "name": "setDenormalizedMark",
      "outputs": [
        {
          "internalType": "bool",
          "name": "",
          "type": "bool"
        }
      ],
      "stateMutability": "nonpayable",
      "type": "function"
    },
    {
      "inputs": [
        {
          "internalType": "uint256",
          "name": "_period",
          "type": "uint256"
        }
      ],
      "name": "setDenormalizedMarkForFunding",
      "outputs": [
        {
          "internalType": "bool",
          "name": "",
          "type": "bool"
        }
      ],
      "stateMutability": "nonpayable",
      "type": "function"
    },
    {
      "inputs": [
        {
          "internalType": "uint256",
          "name": "_period",
          "type": "uint256"
        }
      ],
      "name": "getIndex",
      "outputs": [
        {
          "internalType": "uint256",
          "name": "",
          "type": "uint256"
        }
      ],
      "stateMutability": "view",
      "type": "function",
      "constant": true
    },
    {
      "inputs": [
        {
          "internalType": "uint256",
          "name": "_period",
          "type": "uint256"
        }
      ],
      "name": "getDenormalizedMark",
      "outputs": [
        {
          "internalType": "uint256",
          "name": "",
          "type": "uint256"
        }
      ],
      "stateMutability": "view",
      "type": "function",
      "constant": true
    },
    {
      "inputs": [
        {
          "internalType": "uint256",
          "name": "_period",
          "type": "uint256"
        }
      ],
      "name": "getDenormalizedMarkForFunding",
      "outputs": [
        {
          "internalType": "uint256",
          "name": "",
          "type": "uint256"
        }
      ],
      "stateMutability": "view",
      "type": "function",
      "constant": true
    },
    {
      "inputs": [],
      "name": "getVolatilityPrice",
      "outputs": [
        {
          "internalType": "uint256",
          "name": "",
          "type": "uint256"
        }
      ],
      "stateMutability": "view",
      "type": "function",
      "constant": true
    },
    {
      "inputs": [
        {
          "internalType": "uint256",
          "name": "_period",
          "type": "uint256"
        }
      ],
      "name": "getCurrentFundingRate",
      "outputs": [
        {
          "internalType": "uint256",
          "name": "",
          "type": "uint256"
        }
      ],
      "stateMutability": "view",
      "type": "function",
      "constant": true
    },
    {
      "inputs": [
        {
          "internalType": "uint256",
          "name": "_periodFrom",
          "type": "uint256"
        },
        {
          "internalType": "uint256",
          "name": "_periodTo",
          "type": "uint256"
        }
      ],
      "name": "getHistoricalFundingRate",
      "outputs": [
        {
          "internalType": "uint256",
          "name": "",
          "type": "uint256"
        }
      ],
      "stateMutability": "view",
      "type": "function",
      "constant": true
    }
  ],
  "bytecode": "0x6080604052600160055560006006556000600755600160085534801561002457600080fd5b5061002e33610033565b610083565b600080546001600160a01b038381166001600160a01b0319831681178455604051919092169283917f8be0079c531659141344cd1fd0a4f28419497f9722a3daafe3b4186f6b6457e09190a35050565b610f42806100926000396000f3fe608060405234801561001057600080fd5b50600436106101825760003560e01c80638e7cb6e1116100d8578063e3de2ec71161008c578063f2fde38b11610066578063f2fde38b1461030c578063f7f427b91461031f578063fb58366f1461033257600080fd5b8063e3de2ec7146102da578063e49748b7146102e3578063e783d4691461030357600080fd5b8063d1e901aa116100bd578063d1e901aa1461028e578063d534d636146102b1578063e054e12d146102ba57600080fd5b80638e7cb6e114610268578063b74ed5701461027b57600080fd5b80634fce5b5f1161013a5780638abee9ea116101145780638abee9ea146102315780638c1b753a1461023a5780638da5cb5b1461024d57600080fd5b80634fce5b5f1461020c578063715018a61461021f5780637d343bbb1461022957600080fd5b8063158961f51161016b578063158961f5146101b65780633805a569146101d657806340a5737f146101f957600080fd5b806308ac3cb8146101875780630db1470a146101a3575b600080fd5b61019060095481565b6040519081526020015b60405180910390f35b6101906101b1366004610e22565b610345565b6101906101c4366004610e44565b60036020526000908152604090205481565b6101e96101e4366004610e44565b610565565b604051901515815260200161019a565b6101e9610207366004610e44565b610664565b6101e961021a366004610e44565b610779565b61022761088c565b005b600854610190565b61019060085481565b610190610248366004610e44565b6108f2565b6000546040516001600160a01b03909116815260200161019a565b610190610276366004610e44565b610990565b610190610289366004610e44565b610a15565b6101e961029c366004610e44565b60046020526000908152604090205460ff1681565b61019060055481565b6101906102c8366004610e44565b60026020526000908152604090205481565b61019060075481565b6101906102f1366004610e44565b60016020526000908152604090205481565b61019060065481565b61022761031a366004610e5d565b610a9a565b61019061032d366004610e44565b610b7c565b6101e9610340366004610e44565b610c01565b60008183141561039c5760405162461bcd60e51b815260206004820152601460248201527f496e76616c696420506572696f642052616e676500000000000000000000000060448201526064015b60405180910390fd5b8282116104115760405162461bcd60e51b815260206004820152603060248201527f506572696f6420546f206d7573742062652067726561746f72207468616e207460448201527f686520696e697469616c2072616e6765000000000000000000000000000000006064820152608401610393565b816104685760405162461bcd60e51b815260206004820152602160248201527f46696e616c20506572696f642052616e67652063616e6e6f74206265207a65726044820152606f60f81b6064820152608401610393565b600083116104de5760405162461bcd60e51b815260206004820152602660248201527f496e74697469616c20506572696f642052616e6765206d757374206e6f74206260448201527f65207a65726f00000000000000000000000000000000000000000000000000006064820152608401610393565b60006104e984610b7c565b905060006104f684610b7c565b905060006105048383610d51565b90506000610513826002610d64565b9050600061052088610990565b9050600061052d88610990565b9050600061053b8383610d51565b9050600061054a826002610d64565b90506105568582610d70565b9b9a5050505050505050505050565b600080546001600160a01b031633146105c05760405162461bcd60e51b815260206004820181905260248201527f4f776e61626c653a2063616c6c6572206973206e6f7420746865206f776e65726044820152606401610393565b81806106015760405162461bcd60e51b815260206004820152601060248201526f24b73b30b634b210223ab930ba34b7b760811b6044820152606401610393565b61060f600c80546001019055565b600061061a600c5490565b600085815260036020526040808220839055519192504291839133917f62d9bf93659282df5358f749e44b4cca49434c57c612f9d98da0b493c7eca35f9190a45060019392505050565b600080546001600160a01b031633146106bf5760405162461bcd60e51b815260206004820181905260248201527f4f776e61626c653a2063616c6c6572206973206e6f7420746865206f776e65726044820152606401610393565b81806107005760405162461bcd60e51b815260206004820152601060248201526f24b73b30b634b210223ab930ba34b7b760811b6044820152606401610393565b61070e600a80546001019055565b6000610719600a5490565b600085815260016020819052604090912082905560065491925061073d9190610d51565b6006556040514290829033907f219e426171b2b8af10112fdfd1eaee387ced4c5145f73436c0a71fad4a83203690600090a45060019392505050565b600080546001600160a01b031633146107d45760405162461bcd60e51b815260206004820181905260248201527f4f776e61626c653a2063616c6c6572206973206e6f7420746865206f776e65726044820152606401610393565b81806108155760405162461bcd60e51b815260206004820152601060248201526f24b73b30b634b210223ab930ba34b7b760811b6044820152606401610393565b610823600b80546001019055565b600061082e600b5490565b6000858152600260205260409020819055600754909150610850906001610d51565b6007556040514290829033907f7336bbfd4d5ec8d2424f06531ec0389bea480bd96e26dc58f56d8182e164900d90600090a45060019392505050565b6000546001600160a01b031633146108e65760405162461bcd60e51b815260206004820181905260248201527f4f776e61626c653a2063616c6c6572206973206e6f7420746865206f776e65726044820152606401610393565b6108f06000610d7c565b565b600081815260046020526040812054829060ff1615156001146109635760405162461bcd60e51b815260206004820152602360248201527f5472616e73616374696f6e204475726174696f6e204e6f7420526567697374656044820152621c995960ea1b6064820152608401610393565b600061096e84610b7c565b9050600061097b85610990565b90506109878282610de4565b95945050505050565b600081815260046020526040812054829060ff161515600114610a015760405162461bcd60e51b815260206004820152602360248201527f5472616e73616374696f6e204475726174696f6e204e6f7420526567697374656044820152621c995960ea1b6064820152608401610393565b505060009081526001602052604090205490565b600081815260046020526040812054829060ff161515600114610a865760405162461bcd60e51b815260206004820152602360248201527f5472616e73616374696f6e204475726174696f6e204e6f7420526567697374656044820152621c995960ea1b6064820152608401610393565b505060009081526003602052604090205490565b6000546001600160a01b03163314610af45760405162461bcd60e51b815260206004820181905260248201527f4f776e61626c653a2063616c6c6572206973206e6f7420746865206f776e65726044820152606401610393565b6001600160a01b038116610b705760405162461bcd60e51b815260206004820152602660248201527f4f776e61626c653a206e6577206f776e657220697320746865207a65726f206160448201527f64647265737300000000000000000000000000000000000000000000000000006064820152608401610393565b610b7981610d7c565b50565b600081815260046020526040812054829060ff161515600114610bed5760405162461bcd60e51b815260206004820152602360248201527f5472616e73616374696f6e204475726174696f6e204e6f7420526567697374656044820152621c995960ea1b6064820152608401610393565b505060009081526002602052604090205490565b600080546001600160a01b03163314610c5c5760405162461bcd60e51b815260206004820181905260248201527f4f776e61626c653a2063616c6c6572206973206e6f7420746865206f776e65726044820152606401610393565b8180610c9d5760405162461bcd60e51b815260206004820152601060248201526f24b73b30b634b210223ab930ba34b7b760811b6044820152606401610393565b600083815260046020526040902054839060ff1615610cfe5760405162461bcd60e51b815260206004820152601b60248201527f5472616e73616374696f6e204475726174696f6e2045786973747300000000006044820152606401610393565b6009849055600084815260046020526040808220805460ff19166001179055514291869133917f2d27c4d7376bd214c5707fc6fbbf9c203adca99106a59325387bffc51467559191a45060019392505050565b6000610d5d8284610e9c565b9392505050565b6000610d5d8284610eb4565b6000610d5d8383610de4565b600080546001600160a01b038381167fffffffffffffffffffffffff0000000000000000000000000000000000000000831681178455604051919092169283917f8be0079c531659141344cd1fd0a4f28419497f9722a3daafe3b4186f6b6457e09190a35050565b600080610df18484610e0a565b90506000610dfe60055490565b90506109878183610e16565b6000610d5d8284610ed6565b6000610d5d8284610eed565b60008060408385031215610e3557600080fd5b50508035926020909101359150565b600060208284031215610e5657600080fd5b5035919050565b600060208284031215610e6f57600080fd5b81356001600160a01b0381168114610d5d57600080fd5b634e487b7160e01b600052601160045260246000fd5b60008219821115610eaf57610eaf610e86565b500190565b600082610ed157634e487b7160e01b600052601260045260246000fd5b500490565b600082821015610ee857610ee8610e86565b500390565b6000816000190483118215151615610f0757610f07610e86565b50029056fea2646970667358221220e6f4dcdf361b7b8cde06a716aacac46711a93b8cc5722f8ae5b182608e86e3bf64736f6c634300080b0033",
  "immutableReferences": {},
  "source": "// SPDX-License-Identifier: MIT\r\npragma solidity ^0.8.0;\r\npragma abicoder v2;\r\n\r\nimport '@openzeppelin/contracts/access/Ownable.sol';\r\nimport '@openzeppelin/contracts/utils/Counters.sol';\r\nimport '@openzeppelin/contracts/utils/math/SafeMath.sol';\r\n\r\n/**\r\n* @title MockSqueethController\r\n* @dev A Mock Controller for testing out the Squeeth controller implementation\r\n */\r\ncontract MockSqueethController is Ownable{\r\n    using SafeMath for uint256;\r\n    using Counters for Counters.Counter;\r\n\r\n    mapping(uint => uint) public indexByDuration; //mock index price(ETH^2) price\r\n    mapping(uint => uint) public denormalizedMarkPrice; //mock denormalizedMarkPrice\r\n    mapping(uint => uint) public denormalizedMarkPriceForFunding; // mock denormalizedmarkForFunding\r\n    mapping(uint => bool) public isExistingMarkPricePeriod; //to check if this rate is already added(for test purposes)\r\n\r\n    uint public currentPosition = 1;\r\n    uint public totalIndexPrices = 0;\r\n    uint public totalMarkPrices = 0;\r\n\r\n    uint public volatilityPrice = 1;\r\n    uint public transactionPeriod; //dummy transaction period to be set by the contract owner(for testing purposes)\r\n\r\n    Counters.Counter private indexIds;\r\n    Counters.Counter private markPriceIds;\r\n    Counters.Counter private denormalizedMarkPriceForFundingIds;\r\n\r\n    constructor() public{\r\n\r\n    }\r\n\r\n    modifier isValidDuration(uint _duration){\r\n        require(_duration != 0,\"Invalid Duration\");\r\n        _;\r\n    }\r\n\r\n    modifier periodIsNotRegistered(uint _period){\r\n        require(isExistingMarkPricePeriod[_period] == false,\"Transaction Duration Exists\");\r\n        _;\r\n    }\r\n\r\n    modifier periodIsRegistered(uint _period){\r\n        require(isExistingMarkPricePeriod[_period] == true,\"Transaction Duration Not Registered\");\r\n        _;\r\n    }\r\n\r\n    event NewIndex(address indexed caller, uint indexed newIndex, uint indexed date); // new ETH^2 price\r\n    event NewMarkPrice(address indexed user, uint indexed newMarkprice, uint indexed date);\r\n    event NewTransactionPeriod(address indexed user, uint indexed newTxPeriod, uint indexed date);\r\n    event NewDenormalizedMarkPriceForFunding(address indexed user, uint indexed newFundingMarkPrice, uint indexed date);\r\n\r\n    /**\r\n    * @dev sets a mock transaction period\r\n    * @return bool true if new tx period is set successfully otherwise false\r\n    */\r\n    function setTransactionPeriod(uint _period) public onlyOwner isValidDuration(_period) periodIsNotRegistered(_period) returns(bool){\r\n        transactionPeriod = _period;\r\n        isExistingMarkPricePeriod[_period] = true;\r\n        emit NewTransactionPeriod(msg.sender, _period, block.timestamp);\r\n        return true;\r\n    }\r\n\r\n    /**\r\n    * @dev sets a new (ETH^2) price\r\n    * @param _period uint the period for the ETH^2 trading\r\n    * @return bool true is new ETH^2 price is set successfully otherwise false\r\n    */\r\n    function setIndex(uint _period) public onlyOwner isValidDuration(_period) returns(bool){\r\n        indexIds.increment();\r\n        uint currentIndexId = indexIds.current();\r\n        indexByDuration[_period] = currentIndexId;\r\n        totalIndexPrices = totalIndexPrices.add(1); // to prevent integer overflow\r\n        emit NewIndex(msg.sender,currentIndexId, block.timestamp);\r\n        return true;\r\n    }\r\n\r\n    /**\r\n    * @dev sets a new PowerPerp mark price\r\n    * @param _period the duraion of the trade\r\n    * @return bool true if new price is set successfully otherwisw false\r\n    */\r\n    function setDenormalizedMark(uint _period) public onlyOwner isValidDuration(_period) returns(bool){\r\n        markPriceIds.increment();\r\n        uint currentDenormalizedMarkPrice = markPriceIds.current();\r\n        denormalizedMarkPrice[_period] = currentDenormalizedMarkPrice;\r\n        totalMarkPrices = totalMarkPrices.add(1);\r\n        emit NewMarkPrice(msg.sender,currentDenormalizedMarkPrice, block.timestamp);\r\n        return true;\r\n    }\r\n    \r\n    /**\r\n    * @dev sets a\r\n    * @param _period uint the funding period\r\n    * @return true if new funding period is set otherwise false\r\n    */\r\n    function setDenormalizedMarkForFunding(uint _period) public onlyOwner isValidDuration(_period) returns(bool){\r\n        denormalizedMarkPriceForFundingIds.increment();\r\n        uint currentDenFundIdForFunding = denormalizedMarkPriceForFundingIds.current();\r\n        denormalizedMarkPriceForFunding[_period] = currentDenFundIdForFunding;\r\n        emit NewDenormalizedMarkPriceForFunding(msg.sender, currentDenFundIdForFunding, block.timestamp);\r\n        return true;\r\n    }\r\n\r\n    /**\r\n    * @dev get the index price of the powerPerp, scaled down\r\n    * @return index price denominated in $USD\r\n    */\r\n    function getIndex(uint _period) public view periodIsRegistered(_period) returns(uint){\r\n        return indexByDuration[_period];\r\n    }\r\n\r\n    /**\r\n    * @dev get the expected mark price of powerPerp after funding has been applied\r\n    * @return uint the powerPer price based on the trading period\r\n    */\r\n    function getDenormalizedMark(uint _period) public view periodIsRegistered(_period) returns(uint){\r\n        return denormalizedMarkPrice[_period];\r\n    }\r\n\r\n    /**\r\n    * @dev get the mark price of powerPerp before funding has been applied\r\n    * @return uint mark price\r\n    */\r\n    function getDenormalizedMarkForFunding(uint _period) public view periodIsRegistered(_period) returns(uint){\r\n        return denormalizedMarkPriceForFunding[_period];\r\n    }\r\n\r\n    /**\r\n    * returns the price volatility between the trades of ETH^2 and oSQTH\r\n    */\r\n    function getVolatilityPrice() public view returns(uint){\r\n        return volatilityPrice;\r\n    }\r\n\r\n    /**\r\n    * @dev gets the funding rates based on the proived period\r\n    * @return uint the calucalted funding rate\r\n    */\r\n    function getCurrentFundingRate(uint _period) public view periodIsRegistered(_period) returns(uint){\r\n        uint markPrice = getDenormalizedMark(_period);\r\n        uint indexPrice = getIndex(_period);\r\n        return _getCurrentFundingRate(markPrice,indexPrice);\r\n    }\r\n\r\n    /**\r\n    * @dev returns the funding rate based on an average of the two toke prices(mark price and index price) \r\n    * for testing only and not the exact implementation from squeeth protocol\r\n    */\r\n    function getHistoricalFundingRate(uint _periodFrom, uint _periodTo) public view returns(uint){\r\n        require(_periodFrom != _periodTo,\"Invalid Period Range\");\r\n        require(_periodTo > _periodFrom,\"Period To must be greator than the initial range\");\r\n        require(_periodTo != 0,\"Final Period Range cannot be zero\");\r\n        require(_periodFrom > 0,\"Intitial Period Range must not be zero\");\r\n\r\n        uint initialMarkPrice = getDenormalizedMark(_periodFrom);\r\n        uint latestMarkPrice =  getDenormalizedMark(_periodTo);\r\n\r\n        uint totalMarkPrice = initialMarkPrice.add(latestMarkPrice);\r\n        uint avgMarkPrice = totalMarkPrice.div(2);\r\n\r\n        uint initialIndexPrice = getIndex(_periodFrom);\r\n        uint latestIndexPrice = getIndex(_periodTo);\r\n\r\n        uint totalIndexPrice = initialIndexPrice.add(latestIndexPrice);\r\n        uint avgIndexPrice = totalIndexPrice.div(2);\r\n\r\n        return _getHistoricalFundingRate(avgMarkPrice,avgIndexPrice);\r\n    }\r\n\r\n    /**\r\n    * @notice Funding rates are payments made by long Squeeth traders to short Squeeth traders \r\n    * based on the disparity between the Index Price (ETH) and the Mark Price\r\n    * @dev a helper function that calculates the current funding rate from the mark price(ETH^2 price and index price )\r\n    */\r\n    function _getCurrentFundingRate(uint _markPrice, uint _indexPrice) internal view returns(uint){\r\n        uint difference = _markPrice.sub(_indexPrice);\r\n        uint position = _getCurrentPosition();\r\n        return position.mul(difference);\r\n    }\r\n\r\n    /**\r\n    * @dev internal functin that calculates the funding rates\r\n    */\r\n    function _getHistoricalFundingRate(uint _avgMarkPrice, uint _avgIndexPrice) internal view returns(uint){\r\n        return _getCurrentFundingRate(_avgMarkPrice,_avgIndexPrice);\r\n    }\r\n\r\n    /**\r\n    * @dev fetches the user\\'s current token position\r\n    */\r\n    function _getCurrentPosition() internal view returns(uint){\r\n        return currentPosition;\r\n    }\r\n}",
  "sourcePath": "D:/Dickens/Programming/Blockchain/Projects/Interviews/Laevitas Defi Protocol/contracts/mocks/MockSqueethController.sol",
  "compiler": {
    "name": "solc",
    "version": "0.8.11+commit.d7f03943.Emscripten.clang"
  },
  "schemaVersion": "3.4.1",
  "updatedAt": "2022-01-22T17:25:28.324Z",
  "networkType": "ethereum",
  "devdoc": {
    "details": "A Mock Controller for testing out the Squeeth controller implementation",
    "kind": "dev",
    "methods": {
      "getCurrentFundingRate(uint256)": {
        "details": "gets the funding rates based on the proived period",
        "returns": {
          "_0": "uint the calucalted funding rate"
        }
      },
      "getDenormalizedMark(uint256)": {
        "details": "get the expected mark price of powerPerp after funding has been applied",
        "returns": {
          "_0": "uint the powerPer price based on the trading period"
        }
      },
      "getDenormalizedMarkForFunding(uint256)": {
        "details": "get the mark price of powerPerp before funding has been applied",
        "returns": {
          "_0": "uint mark price"
        }
      },
      "getHistoricalFundingRate(uint256,uint256)": {
        "details": "returns the funding rate based on an average of the two toke prices(mark price and index price)  for testing only and not the exact implementation from squeeth protocol"
      },
      "getIndex(uint256)": {
        "details": "get the index price of the powerPerp, scaled down",
        "returns": {
          "_0": "index price denominated in $USD"
        }
      },
      "owner()": {
        "details": "Returns the address of the current owner."
      },
      "renounceOwnership()": {
        "details": "Leaves the contract without owner. It will not be possible to call `onlyOwner` functions anymore. Can only be called by the current owner. NOTE: Renouncing ownership will leave the contract without an owner, thereby removing any functionality that is only available to the owner."
      },
      "setDenormalizedMark(uint256)": {
        "details": "sets a new PowerPerp mark price",
        "params": {
          "_period": "the duraion of the trade"
        },
        "returns": {
          "_0": "bool true if new price is set successfully otherwisw false"
        }
      },
      "setDenormalizedMarkForFunding(uint256)": {
        "details": "sets a",
        "params": {
          "_period": "uint the funding period"
        },
        "returns": {
          "_0": "true if new funding period is set otherwise false"
        }
      },
      "setIndex(uint256)": {
        "details": "sets a new (ETH^2) price",
        "params": {
          "_period": "uint the period for the ETH^2 trading"
        },
        "returns": {
          "_0": "bool true is new ETH^2 price is set successfully otherwise false"
        }
      },
      "setTransactionPeriod(uint256)": {
        "details": "sets a mock transaction period",
        "returns": {
          "_0": "bool true if new tx period is set successfully otherwise false"
        }
      },
      "transferOwnership(address)": {
        "details": "Transfers ownership of the contract to a new account (`newOwner`). Can only be called by the current owner."
      }
    },
    "title": "MockSqueethController",
    "version": 1
  },
  "userdoc": {
    "kind": "user",
    "methods": {
      "getVolatilityPrice()": {
        "notice": "returns the price volatility between the trades of ETH^2 and oSQTH"
      }
    },
    "version": 1
  }
}