{
  "contractName": "MockSqueethOracle",
  "abi": [
    {
      "inputs": [],
      "name": "MAX_POOL_PERIOD",
      "outputs": [
        {
          "internalType": "uint32",
          "name": "",
          "type": "uint32"
        }
      ],
      "stateMutability": "view",
      "type": "function",
      "constant": true
    },
    {
      "inputs": [
        {
          "internalType": "address",
          "name": "",
          "type": "address"
        }
      ],
      "name": "poolPeriodPrice",
      "outputs": [
        {
          "internalType": "uint256",
          "name": "",
          "type": "uint256"
        }
      ],
      "stateMutability": "view",
      "type": "function",
      "constant": true
    },
    {
      "inputs": [
        {
          "internalType": "address",
          "name": "",
          "type": "address"
        }
      ],
      "name": "poolTick",
      "outputs": [
        {
          "internalType": "int24",
          "name": "",
          "type": "int24"
        }
      ],
      "stateMutability": "view",
      "type": "function",
      "constant": true
    },
    {
      "inputs": [
        {
          "internalType": "address",
          "name": "_pool",
          "type": "address"
        },
        {
          "internalType": "uint256",
          "name": "_price",
          "type": "uint256"
        }
      ],
      "name": "setPrice",
      "outputs": [],
      "stateMutability": "nonpayable",
      "type": "function"
    },
    {
      "inputs": [
        {
          "internalType": "address",
          "name": "_pool",
          "type": "address"
        },
        {
          "internalType": "int24",
          "name": "_poolTick",
          "type": "int24"
        }
      ],
      "name": "setAverageTick",
      "outputs": [],
      "stateMutability": "nonpayable",
      "type": "function"
    },
    {
      "inputs": [
        {
          "internalType": "address",
          "name": "_pool",
          "type": "address"
        },
        {
          "internalType": "uint32",
          "name": "",
          "type": "uint32"
        }
      ],
      "name": "getTimeWeightedAverageTickSafe",
      "outputs": [
        {
          "internalType": "int24",
          "name": "",
          "type": "int24"
        }
      ],
      "stateMutability": "view",
      "type": "function",
      "constant": true
    },
    {
      "inputs": [
        {
          "internalType": "address",
          "name": "_pool",
          "type": "address"
        },
        {
          "internalType": "address",
          "name": "",
          "type": "address"
        },
        {
          "internalType": "address",
          "name": "",
          "type": "address"
        },
        {
          "internalType": "uint32",
          "name": "",
          "type": "uint32"
        },
        {
          "internalType": "bool",
          "name": "",
          "type": "bool"
        }
      ],
      "name": "getTwap",
      "outputs": [
        {
          "internalType": "uint256",
          "name": "",
          "type": "uint256"
        }
      ],
      "stateMutability": "view",
      "type": "function",
      "constant": true
    },
    {
      "inputs": [
        {
          "internalType": "address",
          "name": "",
          "type": "address"
        }
      ],
      "name": "getMaxPeriod",
      "outputs": [
        {
          "internalType": "uint32",
          "name": "",
          "type": "uint32"
        }
      ],
      "stateMutability": "pure",
      "type": "function",
      "constant": true
    }
  ],
  "bytecode": "0x608060405234801561001057600080fd5b5061037b806100206000396000f3fe608060405234801561001057600080fd5b50600436106100875760003560e01c80636213a46e1161005b5780636213a46e14610159578063a0e3c15714610187578063cce79bd5146101aa578063de5a6e22146101d757600080fd5b8062e4768b1461008c5780630cdf87d2146100b85780634a0a96eb146100da5780634c0406951461011a575b600080fd5b6100b661009a366004610207565b6001600160a01b03909116600090815260208190526040902055565b005b6100c0600181565b60405163ffffffff90911681526020015b60405180910390f35b6101076100e8366004610245565b506001600160a01b031660009081526001602052604090205460020b90565b60405160029190910b81526020016100d1565b6100b6610128366004610278565b6001600160a01b03919091166000908152600160205260409020805462ffffff191662ffffff909216919091179055565b6101796101673660046102b5565b60006020819052908152604090205481565b6040519081526020016100d1565b6101076101953660046102b5565b60016020526000908152604090205460020b81565b6101796101b83660046102d7565b505050506001600160a01b031660009081526020819052604090205490565b6100c06101e53660046102b5565b50600190565b80356001600160a01b038116811461020257600080fd5b919050565b6000806040838503121561021a57600080fd5b610223836101eb565b946020939093013593505050565b803563ffffffff8116811461020257600080fd5b6000806040838503121561025857600080fd5b610261836101eb565b915061026f60208401610231565b90509250929050565b6000806040838503121561028b57600080fd5b610294836101eb565b915060208301358060020b81146102aa57600080fd5b809150509250929050565b6000602082840312156102c757600080fd5b6102d0826101eb565b9392505050565b600080600080600060a086880312156102ef57600080fd5b6102f8866101eb565b9450610306602087016101eb565b9350610314604087016101eb565b925061032260608701610231565b91506080860135801515811461033757600080fd5b80915050929550929590935056fea26469706673582212204d56838cdb13e5322fc17125dd9980e77d361a31bfef92169c3f5f1b30467ca264736f6c634300080b0033",
  "immutableReferences": {},
  "source": "// SPDX-License-Identifier: MIT\r\npragma solidity ^0.8.0;\r\npragma abicoder v2;\r\n\r\ncontract MockSqueethOracle {\r\n    mapping(address => uint256) public poolPeriodPrice;\r\n    mapping(address => int24) public poolTick;\r\n    \r\n    uint32 public constant MAX_POOL_PERIOD = 1;\r\n\r\n    function setPrice(address _pool, uint256 _price) external {\r\n        poolPeriodPrice[_pool] = _price;\r\n    }\r\n\r\n    function setAverageTick(address _pool, int24 _poolTick) external {\r\n        poolTick[_pool] = _poolTick;\r\n    }\r\n\r\n    function getTimeWeightedAverageTickSafe(\r\n        address _pool,\r\n        uint32 /*_period*/\r\n    ) external view returns (int24) {\r\n        return poolTick[_pool];\r\n    }\r\n\r\n    function getTwap(\r\n        address _pool,\r\n        address,\r\n        address,\r\n        uint32,\r\n        bool\r\n    ) external view returns (uint256) {\r\n        return poolPeriodPrice[_pool];\r\n    }\r\n\r\n    function getMaxPeriod(address) external pure returns (uint32) {\r\n        return MAX_POOL_PERIOD;\r\n    }\r\n}",
  "sourcePath": "D:/Dickens/Programming/Blockchain/Projects/Interviews/Laevitas Defi Protocol/contracts/mocks/MockSqueethOracle.sol",
  "compiler": {
    "name": "solc",
    "version": "0.8.11+commit.d7f03943.Emscripten.clang"
  },
  "schemaVersion": "3.4.1",
  "updatedAt": "2022-01-22T21:24:36.978Z",
  "networkType": "ethereum",
  "devdoc": {
    "kind": "dev",
    "methods": {},
    "version": 1
  },
  "userdoc": {
    "kind": "user",
    "methods": {},
    "version": 1
  }
}