{
  "contractName": "MockSqueethOracle",
  "abi": [
    {
      "anonymous": false,
      "inputs": [
        {
          "indexed": true,
          "internalType": "address",
          "name": "previousOwner",
          "type": "address"
        },
        {
          "indexed": true,
          "internalType": "address",
          "name": "newOwner",
          "type": "address"
        }
      ],
      "name": "OwnershipTransferred",
      "type": "event"
    },
    {
      "inputs": [],
      "name": "MAX_POOL_PERIOD",
      "outputs": [
        {
          "internalType": "uint32",
          "name": "",
          "type": "uint32"
        }
      ],
      "stateMutability": "view",
      "type": "function",
      "constant": true
    },
    {
      "inputs": [],
      "name": "owner",
      "outputs": [
        {
          "internalType": "address",
          "name": "",
          "type": "address"
        }
      ],
      "stateMutability": "view",
      "type": "function",
      "constant": true
    },
    {
      "inputs": [
        {
          "internalType": "address",
          "name": "",
          "type": "address"
        }
      ],
      "name": "poolPeriodPrice",
      "outputs": [
        {
          "internalType": "uint256",
          "name": "",
          "type": "uint256"
        }
      ],
      "stateMutability": "view",
      "type": "function",
      "constant": true
    },
    {
      "inputs": [
        {
          "internalType": "address",
          "name": "",
          "type": "address"
        }
      ],
      "name": "poolTick",
      "outputs": [
        {
          "internalType": "int24",
          "name": "",
          "type": "int24"
        }
      ],
      "stateMutability": "view",
      "type": "function",
      "constant": true
    },
    {
      "inputs": [],
      "name": "renounceOwnership",
      "outputs": [],
      "stateMutability": "nonpayable",
      "type": "function"
    },
    {
      "inputs": [
        {
          "internalType": "address",
          "name": "newOwner",
          "type": "address"
        }
      ],
      "name": "transferOwnership",
      "outputs": [],
      "stateMutability": "nonpayable",
      "type": "function"
    },
    {
      "inputs": [
        {
          "internalType": "address",
          "name": "_pool",
          "type": "address"
        },
        {
          "internalType": "uint256",
          "name": "_price",
          "type": "uint256"
        }
      ],
      "name": "setPrice",
      "outputs": [],
      "stateMutability": "nonpayable",
      "type": "function"
    },
    {
      "inputs": [
        {
          "internalType": "address",
          "name": "_pool",
          "type": "address"
        },
        {
          "internalType": "int24",
          "name": "_poolTick",
          "type": "int24"
        }
      ],
      "name": "setAverageTick",
      "outputs": [],
      "stateMutability": "nonpayable",
      "type": "function"
    },
    {
      "inputs": [
        {
          "internalType": "address",
          "name": "_pool",
          "type": "address"
        },
        {
          "internalType": "uint32",
          "name": "",
          "type": "uint32"
        }
      ],
      "name": "getTimeWeightedAverageTickSafe",
      "outputs": [
        {
          "internalType": "int24",
          "name": "",
          "type": "int24"
        }
      ],
      "stateMutability": "view",
      "type": "function",
      "constant": true
    },
    {
      "inputs": [
        {
          "internalType": "address",
          "name": "_pool",
          "type": "address"
        },
        {
          "internalType": "address",
          "name": "",
          "type": "address"
        },
        {
          "internalType": "address",
          "name": "",
          "type": "address"
        },
        {
          "internalType": "uint32",
          "name": "",
          "type": "uint32"
        },
        {
          "internalType": "bool",
          "name": "",
          "type": "bool"
        }
      ],
      "name": "getTwap",
      "outputs": [
        {
          "internalType": "uint256",
          "name": "",
          "type": "uint256"
        }
      ],
      "stateMutability": "view",
      "type": "function",
      "constant": true
    },
    {
      "inputs": [
        {
          "internalType": "address",
          "name": "",
          "type": "address"
        }
      ],
      "name": "getMaxPeriod",
      "outputs": [
        {
          "internalType": "uint32",
          "name": "",
          "type": "uint32"
        }
      ],
      "stateMutability": "pure",
      "type": "function",
      "constant": true
    }
  ],
  "bytecode": "0x608060405234801561001057600080fd5b5061001a3361001f565b61006f565b600080546001600160a01b038381166001600160a01b0319831681178455604051919092169283917f8be0079c531659141344cd1fd0a4f28419497f9722a3daafe3b4186f6b6457e09190a35050565b6106698061007e6000396000f3fe608060405234801561001057600080fd5b50600436106100c85760003560e01c8063715018a611610081578063cce79bd51161005b578063cce79bd5146101cf578063de5a6e22146101fc578063f2fde38b1461021057600080fd5b8063715018a6146101875780638da5cb5b1461018f578063a0e3c157146101aa57600080fd5b80634a0a96eb116100b25780634a0a96eb146101045780634c040695146101465780636213a46e1461015957600080fd5b8062e4768b146100cd5780630cdf87d2146100e2575b600080fd5b6100e06100db3660046104f5565b610223565b005b6100ea600181565b60405163ffffffff90911681526020015b60405180910390f35b610133610112366004610533565b506001600160a01b0316600090815260026020819052604090912054900b90565b60405160029190910b81526020016100fb565b6100e0610154366004610566565b61029e565b6101796101673660046105a3565b60016020526000908152604090205481565b6040519081526020016100fb565b6100e0610329565b6000546040516001600160a01b0390911681526020016100fb565b6101336101b83660046105a3565b600260208190526000918252604090912054900b81565b6101796101dd3660046105c5565b505050506001600160a01b031660009081526001602052604090205490565b6100ea61020a3660046105a3565b50600190565b6100e061021e3660046105a3565b61038f565b6000546001600160a01b031633146102825760405162461bcd60e51b815260206004820181905260248201527f4f776e61626c653a2063616c6c6572206973206e6f7420746865206f776e657260448201526064015b60405180910390fd5b6001600160a01b03909116600090815260016020526040902055565b6000546001600160a01b031633146102f85760405162461bcd60e51b815260206004820181905260248201527f4f776e61626c653a2063616c6c6572206973206e6f7420746865206f776e65726044820152606401610279565b6001600160a01b03919091166000908152600260205260409020805462ffffff191662ffffff909216919091179055565b6000546001600160a01b031633146103835760405162461bcd60e51b815260206004820181905260248201527f4f776e61626c653a2063616c6c6572206973206e6f7420746865206f776e65726044820152606401610279565b61038d6000610471565b565b6000546001600160a01b031633146103e95760405162461bcd60e51b815260206004820181905260248201527f4f776e61626c653a2063616c6c6572206973206e6f7420746865206f776e65726044820152606401610279565b6001600160a01b0381166104655760405162461bcd60e51b815260206004820152602660248201527f4f776e61626c653a206e6577206f776e657220697320746865207a65726f206160448201527f64647265737300000000000000000000000000000000000000000000000000006064820152608401610279565b61046e81610471565b50565b600080546001600160a01b038381167fffffffffffffffffffffffff0000000000000000000000000000000000000000831681178455604051919092169283917f8be0079c531659141344cd1fd0a4f28419497f9722a3daafe3b4186f6b6457e09190a35050565b80356001600160a01b03811681146104f057600080fd5b919050565b6000806040838503121561050857600080fd5b610511836104d9565b946020939093013593505050565b803563ffffffff811681146104f057600080fd5b6000806040838503121561054657600080fd5b61054f836104d9565b915061055d6020840161051f565b90509250929050565b6000806040838503121561057957600080fd5b610582836104d9565b915060208301358060020b811461059857600080fd5b809150509250929050565b6000602082840312156105b557600080fd5b6105be826104d9565b9392505050565b600080600080600060a086880312156105dd57600080fd5b6105e6866104d9565b94506105f4602087016104d9565b9350610602604087016104d9565b92506106106060870161051f565b91506080860135801515811461062557600080fd5b80915050929550929590935056fea26469706673582212202b9027e77d0d32ea9dd49040a2bbaff0e5e315f82b273fa3a3231abce602bfac64736f6c634300080b0033",
  "immutableReferences": {},
  "source": "// SPDX-License-Identifier: MIT\r\npragma solidity ^0.8.0;\r\npragma abicoder v2;\r\n\r\nimport '@openzeppelin/contracts/access/Ownable.sol';\r\n\r\ncontract MockSqueethOracle is Ownable{\r\n    mapping(address => uint256) public poolPeriodPrice;\r\n    mapping(address => int24) public poolTick;\r\n    \r\n    uint32 public constant MAX_POOL_PERIOD = 1;\r\n\r\n    function setPrice(address _pool, uint256 _price) external onlyOwner {\r\n        poolPeriodPrice[_pool] = _price;\r\n    }\r\n\r\n    function setAverageTick(address _pool, int24 _poolTick) external onlyOwner{\r\n        poolTick[_pool] = _poolTick;\r\n    }\r\n\r\n    function getTimeWeightedAverageTickSafe(\r\n        address _pool,\r\n        uint32 /*_period*/\r\n    ) external view returns (int24) {\r\n        return poolTick[_pool];\r\n    }\r\n\r\n    function getTwap(\r\n        address _pool,\r\n        address,\r\n        address,\r\n        uint32,\r\n        bool\r\n    ) external view returns (uint256) {\r\n        return poolPeriodPrice[_pool];\r\n    }\r\n\r\n    function getMaxPeriod(address) external pure returns (uint32) {\r\n        return MAX_POOL_PERIOD;\r\n    }\r\n}",
  "sourcePath": "D:/Dickens/Programming/Blockchain/Projects/Interviews/Laevitas Defi Protocol/contracts/mocks/MockSqueethOracle.sol",
  "compiler": {
    "name": "solc",
    "version": "0.8.11+commit.d7f03943.Emscripten.clang"
  },
  "schemaVersion": "3.4.1",
  "updatedAt": "2022-01-22T22:58:38.212Z",
  "networkType": "ethereum",
  "devdoc": {
    "kind": "dev",
    "methods": {
      "owner()": {
        "details": "Returns the address of the current owner."
      },
      "renounceOwnership()": {
        "details": "Leaves the contract without owner. It will not be possible to call `onlyOwner` functions anymore. Can only be called by the current owner. NOTE: Renouncing ownership will leave the contract without an owner, thereby removing any functionality that is only available to the owner."
      },
      "transferOwnership(address)": {
        "details": "Transfers ownership of the contract to a new account (`newOwner`). Can only be called by the current owner."
      }
    },
    "version": 1
  },
  "userdoc": {
    "kind": "user",
    "methods": {},
    "version": 1
  }
}