{
  "contractName": "MockSqueethController",
  "abi": [
    {
      "inputs": [],
      "stateMutability": "nonpayable",
      "type": "constructor"
    },
    {
      "anonymous": false,
      "inputs": [
        {
          "indexed": true,
          "internalType": "address",
          "name": "user",
          "type": "address"
        },
        {
          "indexed": true,
          "internalType": "uint256",
          "name": "newFundingMarkPrice",
          "type": "uint256"
        },
        {
          "indexed": true,
          "internalType": "uint256",
          "name": "date",
          "type": "uint256"
        }
      ],
      "name": "NewDenormalizedMarkPriceForFunding",
      "type": "event"
    },
    {
      "anonymous": false,
      "inputs": [
        {
          "indexed": true,
          "internalType": "address",
          "name": "caller",
          "type": "address"
        },
        {
          "indexed": true,
          "internalType": "uint256",
          "name": "newIndex",
          "type": "uint256"
        },
        {
          "indexed": true,
          "internalType": "uint256",
          "name": "date",
          "type": "uint256"
        }
      ],
      "name": "NewIndex",
      "type": "event"
    },
    {
      "anonymous": false,
      "inputs": [
        {
          "indexed": true,
          "internalType": "address",
          "name": "user",
          "type": "address"
        },
        {
          "indexed": true,
          "internalType": "uint256",
          "name": "newMarkprice",
          "type": "uint256"
        },
        {
          "indexed": true,
          "internalType": "uint256",
          "name": "date",
          "type": "uint256"
        }
      ],
      "name": "NewMarkPrice",
      "type": "event"
    },
    {
      "anonymous": false,
      "inputs": [
        {
          "indexed": true,
          "internalType": "address",
          "name": "user",
          "type": "address"
        },
        {
          "indexed": true,
          "internalType": "uint256",
          "name": "newTxPeriod",
          "type": "uint256"
        },
        {
          "indexed": true,
          "internalType": "uint256",
          "name": "date",
          "type": "uint256"
        }
      ],
      "name": "NewTransactionPeriod",
      "type": "event"
    },
    {
      "anonymous": false,
      "inputs": [
        {
          "indexed": true,
          "internalType": "address",
          "name": "previousOwner",
          "type": "address"
        },
        {
          "indexed": true,
          "internalType": "address",
          "name": "newOwner",
          "type": "address"
        }
      ],
      "name": "OwnershipTransferred",
      "type": "event"
    },
    {
      "inputs": [],
      "name": "currentPosition",
      "outputs": [
        {
          "internalType": "uint256",
          "name": "",
          "type": "uint256"
        }
      ],
      "stateMutability": "view",
      "type": "function"
    },
    {
      "inputs": [
        {
          "internalType": "uint256",
          "name": "",
          "type": "uint256"
        }
      ],
      "name": "denormalizedMarkPrice",
      "outputs": [
        {
          "internalType": "uint256",
          "name": "",
          "type": "uint256"
        }
      ],
      "stateMutability": "view",
      "type": "function"
    },
    {
      "inputs": [
        {
          "internalType": "uint256",
          "name": "",
          "type": "uint256"
        }
      ],
      "name": "denormalizedMarkPriceForFunding",
      "outputs": [
        {
          "internalType": "uint256",
          "name": "",
          "type": "uint256"
        }
      ],
      "stateMutability": "view",
      "type": "function"
    },
    {
      "inputs": [
        {
          "internalType": "uint256",
          "name": "",
          "type": "uint256"
        }
      ],
      "name": "indexByDuration",
      "outputs": [
        {
          "internalType": "uint256",
          "name": "",
          "type": "uint256"
        }
      ],
      "stateMutability": "view",
      "type": "function"
    },
    {
      "inputs": [
        {
          "internalType": "uint256",
          "name": "",
          "type": "uint256"
        }
      ],
      "name": "isExistingMarkPricePeriod",
      "outputs": [
        {
          "internalType": "bool",
          "name": "",
          "type": "bool"
        }
      ],
      "stateMutability": "view",
      "type": "function"
    },
    {
      "inputs": [],
      "name": "owner",
      "outputs": [
        {
          "internalType": "address",
          "name": "",
          "type": "address"
        }
      ],
      "stateMutability": "view",
      "type": "function"
    },
    {
      "inputs": [],
      "name": "renounceOwnership",
      "outputs": [],
      "stateMutability": "nonpayable",
      "type": "function"
    },
    {
      "inputs": [],
      "name": "totalIndexPrices",
      "outputs": [
        {
          "internalType": "uint256",
          "name": "",
          "type": "uint256"
        }
      ],
      "stateMutability": "view",
      "type": "function"
    },
    {
      "inputs": [],
      "name": "totalMarkPrices",
      "outputs": [
        {
          "internalType": "uint256",
          "name": "",
          "type": "uint256"
        }
      ],
      "stateMutability": "view",
      "type": "function"
    },
    {
      "inputs": [],
      "name": "transactionPeriod",
      "outputs": [
        {
          "internalType": "uint256",
          "name": "",
          "type": "uint256"
        }
      ],
      "stateMutability": "view",
      "type": "function"
    },
    {
      "inputs": [
        {
          "internalType": "address",
          "name": "newOwner",
          "type": "address"
        }
      ],
      "name": "transferOwnership",
      "outputs": [],
      "stateMutability": "nonpayable",
      "type": "function"
    },
    {
      "inputs": [],
      "name": "volatilityPrice",
      "outputs": [
        {
          "internalType": "uint256",
          "name": "",
          "type": "uint256"
        }
      ],
      "stateMutability": "view",
      "type": "function"
    },
    {
      "inputs": [
        {
          "internalType": "uint256",
          "name": "_period",
          "type": "uint256"
        }
      ],
      "name": "setTransactionPeriod",
      "outputs": [
        {
          "internalType": "bool",
          "name": "",
          "type": "bool"
        }
      ],
      "stateMutability": "nonpayable",
      "type": "function"
    },
    {
      "inputs": [
        {
          "internalType": "uint256",
          "name": "_period",
          "type": "uint256"
        }
      ],
      "name": "setIndex",
      "outputs": [
        {
          "internalType": "bool",
          "name": "",
          "type": "bool"
        }
      ],
      "stateMutability": "nonpayable",
      "type": "function"
    },
    {
      "inputs": [
        {
          "internalType": "uint256",
          "name": "_period",
          "type": "uint256"
        }
      ],
      "name": "setDenormalizedMark",
      "outputs": [
        {
          "internalType": "bool",
          "name": "",
          "type": "bool"
        }
      ],
      "stateMutability": "nonpayable",
      "type": "function"
    },
    {
      "inputs": [
        {
          "internalType": "uint256",
          "name": "_period",
          "type": "uint256"
        }
      ],
      "name": "setDenormalizedMarkForFunding",
      "outputs": [
        {
          "internalType": "bool",
          "name": "",
          "type": "bool"
        }
      ],
      "stateMutability": "nonpayable",
      "type": "function"
    },
    {
      "inputs": [
        {
          "internalType": "uint256",
          "name": "_period",
          "type": "uint256"
        }
      ],
      "name": "getIndex",
      "outputs": [
        {
          "internalType": "uint256",
          "name": "",
          "type": "uint256"
        }
      ],
      "stateMutability": "view",
      "type": "function"
    },
    {
      "inputs": [
        {
          "internalType": "uint256",
          "name": "_period",
          "type": "uint256"
        }
      ],
      "name": "getDenormalizedMark",
      "outputs": [
        {
          "internalType": "uint256",
          "name": "",
          "type": "uint256"
        }
      ],
      "stateMutability": "view",
      "type": "function"
    },
    {
      "inputs": [
        {
          "internalType": "uint256",
          "name": "_period",
          "type": "uint256"
        }
      ],
      "name": "getDenormalizedMarkForFunding",
      "outputs": [
        {
          "internalType": "uint256",
          "name": "",
          "type": "uint256"
        }
      ],
      "stateMutability": "view",
      "type": "function"
    },
    {
      "inputs": [],
      "name": "getVolatilityPrice",
      "outputs": [
        {
          "internalType": "uint256",
          "name": "",
          "type": "uint256"
        }
      ],
      "stateMutability": "view",
      "type": "function"
    },
    {
      "inputs": [
        {
          "internalType": "uint256",
          "name": "_period",
          "type": "uint256"
        }
      ],
      "name": "getCurrentFundingRate",
      "outputs": [
        {
          "internalType": "uint256",
          "name": "",
          "type": "uint256"
        }
      ],
      "stateMutability": "view",
      "type": "function"
    },
    {
      "inputs": [
        {
          "internalType": "uint256",
          "name": "_periodFrom",
          "type": "uint256"
        },
        {
          "internalType": "uint256",
          "name": "_periodTo",
          "type": "uint256"
        }
      ],
      "name": "getHistoricalFundingRate",
      "outputs": [
        {
          "internalType": "uint256",
          "name": "",
          "type": "uint256"
        }
      ],
      "stateMutability": "view",
      "type": "function"
    }
  ],
  "bytecode": "0x6080604052600160055560006006556000600755600160085534801561002457600080fd5b5061002e33610033565b610083565b600080546001600160a01b038381166001600160a01b0319831681178455604051919092169283917f8be0079c531659141344cd1fd0a4f28419497f9722a3daafe3b4186f6b6457e09190a35050565b610cac806100926000396000f3fe608060405234801561001057600080fd5b50600436106101425760003560e01c80638e7cb6e1116100b8578063e3de2ec71161007c578063e3de2ec71461029a578063e49748b7146102a3578063e783d469146102c3578063f2fde38b146102cc578063f7f427b9146102df578063fb58366f146102f257600080fd5b80638e7cb6e114610228578063b74ed5701461023b578063d1e901aa1461024e578063d534d63614610271578063e054e12d1461027a57600080fd5b80634fce5b5f1161010a5780634fce5b5f146101cc578063715018a6146101df5780637d343bbb146101e95780638abee9ea146101f15780638c1b753a146101fa5780638da5cb5b1461020d57600080fd5b806308ac3cb8146101475780630db1470a14610163578063158961f5146101765780633805a5691461019657806340a5737f146101b9575b600080fd5b61015060095481565b6040519081526020015b60405180910390f35b610150610171366004610aea565b610305565b610150610184366004610b0c565b60036020526000908152604090205481565b6101a96101a4366004610b0c565b6104f8565b604051901515815260200161015a565b6101a96101c7366004610b0c565b6105a4565b6101a96101da366004610b0c565b610666565b6101e7610726565b005b600854610150565b61015060085481565b610150610208366004610b0c565b61075c565b6000546040516001600160a01b03909116815260200161015a565b610150610236366004610b0c565b6107be565b610150610249366004610b0c565b610807565b6101a961025c366004610b0c565b60046020526000908152604090205460ff1681565b61015060055481565b610150610288366004610b0c565b60026020526000908152604090205481565b61015060075481565b6101506102b1366004610b0c565b60016020526000908152604090205481565b61015060065481565b6101e76102da366004610b25565b610850565b6101506102ed366004610b0c565b6108eb565b6101a9610300366004610b0c565b610934565b6000818314156103535760405162461bcd60e51b8152602060048201526014602482015273496e76616c696420506572696f642052616e676560601b60448201526064015b60405180910390fd5b8282116103bb5760405162461bcd60e51b815260206004820152603060248201527f506572696f6420546f206d7573742062652067726561746f72207468616e207460448201526f686520696e697469616c2072616e676560801b606482015260840161034a565b816104125760405162461bcd60e51b815260206004820152602160248201527f46696e616c20506572696f642052616e67652063616e6e6f74206265207a65726044820152606f60f81b606482015260840161034a565b600083116104715760405162461bcd60e51b815260206004820152602660248201527f496e74697469616c20506572696f642052616e6765206d757374206e6f74206260448201526565207a65726f60d01b606482015260840161034a565b600061047c846108eb565b90506000610489846108eb565b905060006104978383610a31565b905060006104a6826002610a44565b905060006104b3886107be565b905060006104c0886107be565b905060006104ce8383610a31565b905060006104dd826002610a44565b90506104e98582610a50565b9b9a5050505050505050505050565b600080546001600160a01b031633146105235760405162461bcd60e51b815260040161034a90610b4e565b81806105415760405162461bcd60e51b815260040161034a90610b83565b61054f600c80546001019055565b600061055a600c5490565b600085815260036020526040808220839055519192504291839133917f62d9bf93659282df5358f749e44b4cca49434c57c612f9d98da0b493c7eca35f9190a45060019392505050565b600080546001600160a01b031633146105cf5760405162461bcd60e51b815260040161034a90610b4e565b81806105ed5760405162461bcd60e51b815260040161034a90610b83565b6105fb600a80546001019055565b6000610606600a5490565b600085815260016020819052604090912082905560065491925061062a9190610a31565b6006556040514290829033907f219e426171b2b8af10112fdfd1eaee387ced4c5145f73436c0a71fad4a83203690600090a45060019392505050565b600080546001600160a01b031633146106915760405162461bcd60e51b815260040161034a90610b4e565b81806106af5760405162461bcd60e51b815260040161034a90610b83565b6106bd600b80546001019055565b60006106c8600b5490565b60008581526002602052604090208190556007549091506106ea906001610a31565b6007556040514290829033907f7336bbfd4d5ec8d2424f06531ec0389bea480bd96e26dc58f56d8182e164900d90600090a45060019392505050565b6000546001600160a01b031633146107505760405162461bcd60e51b815260040161034a90610b4e565b61075a6000610a5c565b565b600081815260046020526040812054829060ff1615156001146107915760405162461bcd60e51b815260040161034a90610bad565b600061079c846108eb565b905060006107a9856107be565b90506107b58282610aac565b95945050505050565b600081815260046020526040812054829060ff1615156001146107f35760405162461bcd60e51b815260040161034a90610bad565b505060009081526001602052604090205490565b600081815260046020526040812054829060ff16151560011461083c5760405162461bcd60e51b815260040161034a90610bad565b505060009081526003602052604090205490565b6000546001600160a01b0316331461087a5760405162461bcd60e51b815260040161034a90610b4e565b6001600160a01b0381166108df5760405162461bcd60e51b815260206004820152602660248201527f4f776e61626c653a206e6577206f776e657220697320746865207a65726f206160448201526564647265737360d01b606482015260840161034a565b6108e881610a5c565b50565b600081815260046020526040812054829060ff1615156001146109205760405162461bcd60e51b815260040161034a90610bad565b505060009081526002602052604090205490565b600080546001600160a01b0316331461095f5760405162461bcd60e51b815260040161034a90610b4e565b818061097d5760405162461bcd60e51b815260040161034a90610b83565b600083815260046020526040902054839060ff16156109de5760405162461bcd60e51b815260206004820152601b60248201527f5472616e73616374696f6e204475726174696f6e204578697374730000000000604482015260640161034a565b6009849055600084815260046020526040808220805460ff19166001179055514291869133917f2d27c4d7376bd214c5707fc6fbbf9c203adca99106a59325387bffc51467559191a45060019392505050565b6000610a3d8284610c06565b9392505050565b6000610a3d8284610c1e565b6000610a3d8383610aac565b600080546001600160a01b038381166001600160a01b0319831681178455604051919092169283917f8be0079c531659141344cd1fd0a4f28419497f9722a3daafe3b4186f6b6457e09190a35050565b600080610ab98484610ad2565b90506000610ac660055490565b90506107b58183610ade565b6000610a3d8284610c40565b6000610a3d8284610c57565b60008060408385031215610afd57600080fd5b50508035926020909101359150565b600060208284031215610b1e57600080fd5b5035919050565b600060208284031215610b3757600080fd5b81356001600160a01b0381168114610a3d57600080fd5b6020808252818101527f4f776e61626c653a2063616c6c6572206973206e6f7420746865206f776e6572604082015260600190565b60208082526010908201526f24b73b30b634b210223ab930ba34b7b760811b604082015260600190565b60208082526023908201527f5472616e73616374696f6e204475726174696f6e204e6f7420526567697374656040820152621c995960ea1b606082015260800190565b634e487b7160e01b600052601160045260246000fd5b60008219821115610c1957610c19610bf0565b500190565b600082610c3b57634e487b7160e01b600052601260045260246000fd5b500490565b600082821015610c5257610c52610bf0565b500390565b6000816000190483118215151615610c7157610c71610bf0565b50029056fea2646970667358221220679b6f6d2982c231a66d14734a846cdbcd43de52fdfda276e70d45efa536424264736f6c634300080b0033",
  "immutableReferences": {},
  "source": "// SPDX-License-Identifier: MIT\r\npragma solidity ^0.8.0;\r\npragma abicoder v2;\r\n\r\nimport '@openzeppelin/contracts/access/Ownable.sol';\r\nimport '@openzeppelin/contracts/utils/Counters.sol';\r\nimport '@openzeppelin/contracts/utils/math/SafeMath.sol';\r\n\r\n/**\r\n* @title MockSqueethController\r\n* @dev A Mock Controller for testing out the Squeeth controller implementation\r\n */\r\ncontract MockSqueethController is Ownable{\r\n    using SafeMath for uint256;\r\n    using Counters for Counters.Counter;\r\n\r\n    mapping(uint => uint) public indexByDuration; //mock index price(ETH^2) price\r\n    mapping(uint => uint) public denormalizedMarkPrice; //mock denormalizedMarkPrice\r\n    mapping(uint => uint) public denormalizedMarkPriceForFunding; // mock denormalizedmarkForFunding\r\n    mapping(uint => bool) public isExistingMarkPricePeriod; //to check if this rate is already added(for test purposes)\r\n\r\n    uint public currentPosition = 1;\r\n    uint public totalIndexPrices = 0;\r\n    uint public totalMarkPrices = 0;\r\n\r\n    uint public volatilityPrice = 1;\r\n    uint public transactionPeriod; //dummy transaction period to be set by the contract owner(for testing purposes)\r\n\r\n    Counters.Counter private indexIds;\r\n    Counters.Counter private markPriceIds;\r\n    Counters.Counter private denormalizedMarkPriceForFundingIds;\r\n\r\n    constructor() public{\r\n\r\n    }\r\n\r\n    modifier isValidDuration(uint _duration){\r\n        require(_duration != 0,\"Invalid Duration\");\r\n        _;\r\n    }\r\n\r\n    modifier periodIsNotRegistered(uint _period){\r\n        require(isExistingMarkPricePeriod[_period] == false,\"Transaction Duration Exists\");\r\n        _;\r\n    }\r\n\r\n    modifier periodIsRegistered(uint _period){\r\n        require(isExistingMarkPricePeriod[_period] == true,\"Transaction Duration Not Registered\");\r\n        _;\r\n    }\r\n\r\n    event NewIndex(address indexed caller, uint indexed newIndex, uint indexed date); // new ETH^2 price\r\n    event NewMarkPrice(address indexed user, uint indexed newMarkprice, uint indexed date);\r\n    event NewTransactionPeriod(address indexed user, uint indexed newTxPeriod, uint indexed date);\r\n    event NewDenormalizedMarkPriceForFunding(address indexed user, uint indexed newFundingMarkPrice, uint indexed date);\r\n\r\n    /**\r\n    * @dev sets a mock transaction period\r\n    * @return bool true if new tx period is set successfully otherwise false\r\n    */\r\n    function setTransactionPeriod(uint _period) public onlyOwner isValidDuration(_period) periodIsNotRegistered(_period) returns(bool){\r\n        transactionPeriod = _period;\r\n        isExistingMarkPricePeriod[_period] = true;\r\n        emit NewTransactionPeriod(msg.sender, _period, block.timestamp);\r\n        return true;\r\n    }\r\n\r\n    /**\r\n    * @dev sets a new (ETH^2) price\r\n    * @param _period uint the period for the ETH^2 trading\r\n    * @return bool true is new ETH^2 price is set successfully otherwise false\r\n    */\r\n    function setIndex(uint _period) public onlyOwner isValidDuration(_period) returns(bool){\r\n        indexIds.increment();\r\n        uint currentIndexId = indexIds.current();\r\n        indexByDuration[_period] = currentIndexId;\r\n        totalIndexPrices = totalIndexPrices.add(1); // to prevent integer overflow\r\n        emit NewIndex(msg.sender,currentIndexId, block.timestamp);\r\n        return true;\r\n    }\r\n\r\n    /**\r\n    * @dev sets a new PowerPerp mark price\r\n    * @param _period the duraion of the trade\r\n    * @return bool true if new price is set successfully otherwisw false\r\n    */\r\n    function setDenormalizedMark(uint _period) public onlyOwner isValidDuration(_period) returns(bool){\r\n        markPriceIds.increment();\r\n        uint currentDenormalizedMarkPrice = markPriceIds.current();\r\n        denormalizedMarkPrice[_period] = currentDenormalizedMarkPrice;\r\n        totalMarkPrices = totalMarkPrices.add(1);\r\n        emit NewMarkPrice(msg.sender,currentDenormalizedMarkPrice, block.timestamp);\r\n        return true;\r\n    }\r\n    \r\n    /**\r\n    * @dev sets a\r\n    * @param _period uint the funding period\r\n    * @return true if new funding period is set otherwise false\r\n    */\r\n    function setDenormalizedMarkForFunding(uint _period) public onlyOwner isValidDuration(_period) returns(bool){\r\n        denormalizedMarkPriceForFundingIds.increment();\r\n        uint currentDenFundIdForFunding = denormalizedMarkPriceForFundingIds.current();\r\n        denormalizedMarkPriceForFunding[_period] = currentDenFundIdForFunding;\r\n        emit NewDenormalizedMarkPriceForFunding(msg.sender, currentDenFundIdForFunding, block.timestamp);\r\n        return true;\r\n    }\r\n\r\n    /**\r\n    * @dev get the index price of the powerPerp, scaled down\r\n    * @return index price denominated in $USD\r\n    */\r\n    function getIndex(uint _period) public view periodIsRegistered(_period) returns(uint){\r\n        return indexByDuration[_period];\r\n    }\r\n\r\n    /**\r\n    * @dev get the expected mark price of powerPerp after funding has been applied\r\n    * @return uint the powerPer price based on the trading period\r\n    */\r\n    function getDenormalizedMark(uint _period) public view periodIsRegistered(_period) returns(uint){\r\n        return denormalizedMarkPrice[_period];\r\n    }\r\n\r\n    /**\r\n    * @dev get the mark price of powerPerp before funding has been applied\r\n    * @return uint mark price\r\n    */\r\n    function getDenormalizedMarkForFunding(uint _period) public view periodIsRegistered(_period) returns(uint){\r\n        return denormalizedMarkPriceForFunding[_period];\r\n    }\r\n\r\n    /**\r\n    * returns the price volatility between the trades of ETH^2 and oSQTH\r\n    */\r\n    function getVolatilityPrice() public view returns(uint){\r\n        return volatilityPrice;\r\n    }\r\n\r\n    /**\r\n    * @dev gets the funding rates based on the proived period\r\n    * @return uint the calucalted funding rate\r\n    */\r\n    function getCurrentFundingRate(uint _period) public view periodIsRegistered(_period) returns(uint){\r\n        uint markPrice = getDenormalizedMark(_period);\r\n        uint indexPrice = getIndex(_period);\r\n        return _getCurrentFundingRate(markPrice,indexPrice);\r\n    }\r\n\r\n    /**\r\n    * @dev returns the funding rate based on an average of the two toke prices(mark price and index price) \r\n    * for testing only and not the exact implementation from squeeth protocol\r\n    */\r\n    function getHistoricalFundingRate(uint _periodFrom, uint _periodTo) public view returns(uint){\r\n        require(_periodFrom != _periodTo,\"Invalid Period Range\");\r\n        require(_periodTo > _periodFrom,\"Period To must be greator than the initial range\");\r\n        require(_periodTo != 0,\"Final Period Range cannot be zero\");\r\n        require(_periodFrom > 0,\"Intitial Period Range must not be zero\");\r\n\r\n        uint initialMarkPrice = getDenormalizedMark(_periodFrom);\r\n        uint latestMarkPrice =  getDenormalizedMark(_periodTo);\r\n\r\n        uint totalMarkPrice = initialMarkPrice.add(latestMarkPrice);\r\n        uint avgMarkPrice = totalMarkPrice.div(2);\r\n\r\n        uint initialIndexPrice = getIndex(_periodFrom);\r\n        uint latestIndexPrice = getIndex(_periodTo);\r\n\r\n        uint totalIndexPrice = initialIndexPrice.add(latestIndexPrice);\r\n        uint avgIndexPrice = totalIndexPrice.div(2);\r\n\r\n        return _getHistoricalFundingRate(avgMarkPrice,avgIndexPrice);\r\n    }\r\n\r\n    /**\r\n    * @notice Funding rates are payments made by long Squeeth traders to short Squeeth traders \r\n    * based on the disparity between the Index Price (ETH) and the Mark Price\r\n    * @dev a helper function that calculates the current funding rate from the mark price(ETH^2 price and index price )\r\n    */\r\n    function _getCurrentFundingRate(uint _markPrice, uint _indexPrice) internal view returns(uint){\r\n        uint difference = _markPrice.sub(_indexPrice);\r\n        uint position = _getCurrentPosition();\r\n        return position.mul(difference);\r\n    }\r\n\r\n    /**\r\n    * @dev internal functin that calculates the funding rates\r\n    */\r\n    function _getHistoricalFundingRate(uint _avgMarkPrice, uint _avgIndexPrice) internal view returns(uint){\r\n        return _getCurrentFundingRate(_avgMarkPrice,_avgIndexPrice);\r\n    }\r\n\r\n    /**\r\n    * @dev fetches the user\\'s current token position\r\n    */\r\n    function _getCurrentPosition() internal view returns(uint){\r\n        return currentPosition;\r\n    }\r\n}",
  "sourcePath": "D:/Dickens/Programming/Blockchain/Projects/Interviews/Laevitas Defi Protocol/contracts/mocks/MockSqueethController.sol",
  "compiler": {
    "name": "solc",
    "version": "0.8.11+commit.d7f03943.Emscripten.clang"
  },
  "schemaVersion": "3.4.1",
  "updatedAt": "2022-01-23T20:20:14.669Z",
  "devdoc": {
    "details": "A Mock Controller for testing out the Squeeth controller implementation",
    "kind": "dev",
    "methods": {
      "getCurrentFundingRate(uint256)": {
        "details": "gets the funding rates based on the proived period",
        "returns": {
          "_0": "uint the calucalted funding rate"
        }
      },
      "getDenormalizedMark(uint256)": {
        "details": "get the expected mark price of powerPerp after funding has been applied",
        "returns": {
          "_0": "uint the powerPer price based on the trading period"
        }
      },
      "getDenormalizedMarkForFunding(uint256)": {
        "details": "get the mark price of powerPerp before funding has been applied",
        "returns": {
          "_0": "uint mark price"
        }
      },
      "getHistoricalFundingRate(uint256,uint256)": {
        "details": "returns the funding rate based on an average of the two toke prices(mark price and index price)  for testing only and not the exact implementation from squeeth protocol"
      },
      "getIndex(uint256)": {
        "details": "get the index price of the powerPerp, scaled down",
        "returns": {
          "_0": "index price denominated in $USD"
        }
      },
      "owner()": {
        "details": "Returns the address of the current owner."
      },
      "renounceOwnership()": {
        "details": "Leaves the contract without owner. It will not be possible to call `onlyOwner` functions anymore. Can only be called by the current owner. NOTE: Renouncing ownership will leave the contract without an owner, thereby removing any functionality that is only available to the owner."
      },
      "setDenormalizedMark(uint256)": {
        "details": "sets a new PowerPerp mark price",
        "params": {
          "_period": "the duraion of the trade"
        },
        "returns": {
          "_0": "bool true if new price is set successfully otherwisw false"
        }
      },
      "setDenormalizedMarkForFunding(uint256)": {
        "details": "sets a",
        "params": {
          "_period": "uint the funding period"
        },
        "returns": {
          "_0": "true if new funding period is set otherwise false"
        }
      },
      "setIndex(uint256)": {
        "details": "sets a new (ETH^2) price",
        "params": {
          "_period": "uint the period for the ETH^2 trading"
        },
        "returns": {
          "_0": "bool true is new ETH^2 price is set successfully otherwise false"
        }
      },
      "setTransactionPeriod(uint256)": {
        "details": "sets a mock transaction period",
        "returns": {
          "_0": "bool true if new tx period is set successfully otherwise false"
        }
      },
      "transferOwnership(address)": {
        "details": "Transfers ownership of the contract to a new account (`newOwner`). Can only be called by the current owner."
      }
    },
    "title": "MockSqueethController",
    "version": 1
  },
  "userdoc": {
    "kind": "user",
    "methods": {
      "getVolatilityPrice()": {
        "notice": "returns the price volatility between the trades of ETH^2 and oSQTH"
      }
    },
    "version": 1
  }
}