{
  "contractName": "PriceFeedConsumer",
  "abi": [
    {
      "inputs": [],
      "stateMutability": "nonpayable",
      "type": "constructor"
    },
    {
      "anonymous": false,
      "inputs": [
        {
          "indexed": true,
          "internalType": "address",
          "name": "previousOwner",
          "type": "address"
        },
        {
          "indexed": true,
          "internalType": "address",
          "name": "newOwner",
          "type": "address"
        }
      ],
      "name": "OwnershipTransferred",
      "type": "event"
    },
    {
      "inputs": [],
      "name": "owner",
      "outputs": [
        {
          "internalType": "address",
          "name": "",
          "type": "address"
        }
      ],
      "stateMutability": "view",
      "type": "function"
    },
    {
      "inputs": [],
      "name": "renounceOwnership",
      "outputs": [],
      "stateMutability": "nonpayable",
      "type": "function"
    },
    {
      "inputs": [
        {
          "internalType": "address",
          "name": "newOwner",
          "type": "address"
        }
      ],
      "name": "transferOwnership",
      "outputs": [],
      "stateMutability": "nonpayable",
      "type": "function"
    },
    {
      "inputs": [],
      "name": "getEthPrice",
      "outputs": [
        {
          "internalType": "int256",
          "name": "",
          "type": "int256"
        }
      ],
      "stateMutability": "view",
      "type": "function"
    },
    {
      "inputs": [],
      "name": "getEth2Price",
      "outputs": [
        {
          "internalType": "uint256",
          "name": "",
          "type": "uint256"
        }
      ],
      "stateMutability": "view",
      "type": "function"
    },
    {
      "inputs": [],
      "name": "getMarkPrice",
      "outputs": [
        {
          "internalType": "uint256",
          "name": "",
          "type": "uint256"
        }
      ],
      "stateMutability": "view",
      "type": "function"
    },
    {
      "inputs": [],
      "name": "getOSQthPrice",
      "outputs": [
        {
          "internalType": "uint256",
          "name": "",
          "type": "uint256"
        }
      ],
      "stateMutability": "view",
      "type": "function"
    }
  ],
  "bytecode": "0x60c060405273f1b99e3e573a1a9c5e6b2ce818b617f0e664e86b608052735f4ec3df9cbd43714fe2740f5e3616155c5b841960a05234801561004057600080fd5b5061004a33610075565b600180546001600160a01b031916735f4ec3df9cbd43714fe2740f5e3616155c5b84191790556100c5565b600080546001600160a01b038381166001600160a01b0319831681178455604051919092169283917f8be0079c531659141344cd1fd0a4f28419497f9722a3daafe3b4186f6b6457e09190a35050565b60805160a0516103c26100e460003960005050600050506103c26000f3fe608060405234801561001057600080fd5b506004361061007d5760003560e01c80637dc48d761161005b5780637dc48d76146100825780637edd7334146100825780638da5cb5b146100aa578063f2fde38b146100c557600080fd5b8063604096321461008257806367c9b01714610098578063715018a6146100a0575b600080fd5b60005b6040519081526020015b60405180910390f35b6100856100d8565b6100a8610167565b005b6000546040516001600160a01b03909116815260200161008f565b6100a86100d33660046102ed565b6101d2565b600080600080600080600160009054906101000a90046001600160a01b03166001600160a01b031663feaf968c6040518163ffffffff1660e01b815260040160a060405180830381865afa158015610134573d6000803e3d6000fd5b505050506040513d601f19601f82011682018060405250810190610158919061033c565b50919998505050505050505050565b6000546001600160a01b031633146101c65760405162461bcd60e51b815260206004820181905260248201527f4f776e61626c653a2063616c6c6572206973206e6f7420746865206f776e657260448201526064015b60405180910390fd5b6101d0600061029d565b565b6000546001600160a01b0316331461022c5760405162461bcd60e51b815260206004820181905260248201527f4f776e61626c653a2063616c6c6572206973206e6f7420746865206f776e657260448201526064016101bd565b6001600160a01b0381166102915760405162461bcd60e51b815260206004820152602660248201527f4f776e61626c653a206e6577206f776e657220697320746865207a65726f206160448201526564647265737360d01b60648201526084016101bd565b61029a8161029d565b50565b600080546001600160a01b038381166001600160a01b0319831681178455604051919092169283917f8be0079c531659141344cd1fd0a4f28419497f9722a3daafe3b4186f6b6457e09190a35050565b6000602082840312156102ff57600080fd5b81356001600160a01b038116811461031657600080fd5b9392505050565b805169ffffffffffffffffffff8116811461033757600080fd5b919050565b600080600080600060a0868803121561035457600080fd5b61035d8661031d565b94506020860151935060408601519250606086015191506103806080870161031d565b9050929550929590935056fea26469706673582212202308e06216264b7f2cea5dcfb631925441fe03bb0e55d9ca2c2dabf1c9f9e6fc64736f6c634300080b0033",
  "immutableReferences": {},
  "source": "// SPDX-License-Identifier: MIT\r\n\r\npragma solidity ^0.8.0;\r\nimport '@openzeppelin/contracts/access/Ownable.sol';\r\nimport '@openzeppelin/contracts/utils/math/SafeMath.sol';\r\nimport '@chainlink/contracts/src/v0.8/interfaces/AggregatorV3Interface.sol';\r\n\r\nimport './interfaces/IPriceFeedConsumer.sol';\r\n\r\n/**\r\n * @title PriceFeed Contract\r\n * @dev A simple contract that interacts with external contracts by fetching token price data\r\n */\r\ncontract PriceFeedConsumer is Ownable, IPriceFeedConsumer{\r\n    using SafeMath for uint256;\r\n\r\n    address internal immutable OSQTH_ADDRESS = 0xf1B99e3E573A1a9C5E6B2Ce818b617F0E664E86B;\r\n    address internal immutable ETH_USD_ORACLE = 0x5f4eC3Df9cbd43714FE2740f5E3616155c5b8419;\r\n\r\n    AggregatorV3Interface internal priceFeed; //instantiate an oracle pricefeed\r\n\r\n    constructor() public{\r\n        priceFeed = AggregatorV3Interface(0x5f4eC3Df9cbd43714FE2740f5E3616155c5b8419);\r\n    }\r\n\r\n    /**\r\n    * @dev get the latest price of ETH in USD from the oracle price feed\r\n    */\r\n    function getEthPrice() public view override returns(int){\r\n        (uint80 roundID, int price, uint startedAt, uint timeStamp, uint80 answeredInRound) = priceFeed.latestRoundData();\r\n        return price;\r\n    }\r\n\r\n    function getEth2Price() public view override returns(uint){\r\n\r\n    }\r\n\r\n    function getMarkPrice() public view override returns(uint){\r\n\r\n    }\r\n\r\n    function getOSQthPrice() public view override returns(uint){\r\n\r\n    }\r\n\r\n}",
  "sourcePath": "D:/Dickens/Programming/Blockchain/Projects/Interviews/Laevitas Defi Protocol/contracts/PriceFeedConsumer.sol",
  "compiler": {
    "name": "solc",
    "version": "0.8.11+commit.d7f03943.Emscripten.clang"
  },
  "schemaVersion": "3.4.1",
  "updatedAt": "2022-01-21T17:15:21.478Z",
  "devdoc": {
    "details": "A simple contract that interacts with external contracts by fetching token price data",
    "kind": "dev",
    "methods": {
      "getEthPrice()": {
        "details": "get the latest price of ETH in USD from the oracle price feed"
      },
      "owner()": {
        "details": "Returns the address of the current owner."
      },
      "renounceOwnership()": {
        "details": "Leaves the contract without owner. It will not be possible to call `onlyOwner` functions anymore. Can only be called by the current owner. NOTE: Renouncing ownership will leave the contract without an owner, thereby removing any functionality that is only available to the owner."
      },
      "transferOwnership(address)": {
        "details": "Transfers ownership of the contract to a new account (`newOwner`). Can only be called by the current owner."
      }
    },
    "title": "PriceFeed Contract",
    "version": 1
  },
  "userdoc": {
    "kind": "user",
    "methods": {},
    "version": 1
  }
}