{
  "contractName": "PriceFeedConsumer",
  "abi": [
    {
      "inputs": [
        {
          "internalType": "address",
          "name": "_protocol",
          "type": "address"
        },
        {
          "internalType": "address",
          "name": "_squeethOracle",
          "type": "address"
        }
      ],
      "stateMutability": "nonpayable",
      "type": "constructor"
    },
    {
      "anonymous": false,
      "inputs": [
        {
          "indexed": true,
          "internalType": "address",
          "name": "previousOwner",
          "type": "address"
        },
        {
          "indexed": true,
          "internalType": "address",
          "name": "newOwner",
          "type": "address"
        }
      ],
      "name": "OwnershipTransferred",
      "type": "event"
    },
    {
      "inputs": [],
      "name": "owner",
      "outputs": [
        {
          "internalType": "address",
          "name": "",
          "type": "address"
        }
      ],
      "stateMutability": "view",
      "type": "function",
      "constant": true
    },
    {
      "inputs": [],
      "name": "renounceOwnership",
      "outputs": [],
      "stateMutability": "nonpayable",
      "type": "function"
    },
    {
      "inputs": [],
      "name": "squeethOracle",
      "outputs": [
        {
          "internalType": "address",
          "name": "",
          "type": "address"
        }
      ],
      "stateMutability": "view",
      "type": "function",
      "constant": true
    },
    {
      "inputs": [],
      "name": "squeethProtocol",
      "outputs": [
        {
          "internalType": "address",
          "name": "",
          "type": "address"
        }
      ],
      "stateMutability": "view",
      "type": "function",
      "constant": true
    },
    {
      "inputs": [
        {
          "internalType": "address",
          "name": "newOwner",
          "type": "address"
        }
      ],
      "name": "transferOwnership",
      "outputs": [],
      "stateMutability": "nonpayable",
      "type": "function"
    },
    {
      "inputs": [],
      "name": "getChainLinkEthPrice",
      "outputs": [
        {
          "internalType": "int256",
          "name": "",
          "type": "int256"
        }
      ],
      "stateMutability": "view",
      "type": "function",
      "constant": true
    },
    {
      "inputs": [
        {
          "internalType": "address",
          "name": "_pool",
          "type": "address"
        },
        {
          "internalType": "address",
          "name": "_base",
          "type": "address"
        },
        {
          "internalType": "address",
          "name": "_quote",
          "type": "address"
        },
        {
          "internalType": "uint32",
          "name": "_period",
          "type": "uint32"
        },
        {
          "internalType": "bool",
          "name": "_checkPeriod",
          "type": "bool"
        }
      ],
      "name": "getSquUniswapPoolEthPrice",
      "outputs": [
        {
          "internalType": "uint256",
          "name": "",
          "type": "uint256"
        }
      ],
      "stateMutability": "view",
      "type": "function",
      "constant": true
    },
    {
      "inputs": [
        {
          "internalType": "uint256",
          "name": "_period",
          "type": "uint256"
        }
      ],
      "name": "getEth2Price",
      "outputs": [
        {
          "internalType": "uint256",
          "name": "",
          "type": "uint256"
        }
      ],
      "stateMutability": "view",
      "type": "function",
      "constant": true
    },
    {
      "inputs": [
        {
          "internalType": "uint256",
          "name": "_period",
          "type": "uint256"
        }
      ],
      "name": "getMarkPrice",
      "outputs": [
        {
          "internalType": "uint256",
          "name": "",
          "type": "uint256"
        }
      ],
      "stateMutability": "view",
      "type": "function",
      "constant": true
    },
    {
      "inputs": [
        {
          "internalType": "address",
          "name": "_pool",
          "type": "address"
        },
        {
          "internalType": "uint32",
          "name": "_period",
          "type": "uint32"
        },
        {
          "internalType": "bool",
          "name": "_checkPeriod",
          "type": "bool"
        }
      ],
      "name": "getOSQthPrice",
      "outputs": [
        {
          "internalType": "uint256",
          "name": "",
          "type": "uint256"
        }
      ],
      "stateMutability": "view",
      "type": "function",
      "constant": true
    },
    {
      "inputs": [],
      "name": "getImpliedVolatility",
      "outputs": [
        {
          "internalType": "uint256",
          "name": "",
          "type": "uint256"
        }
      ],
      "stateMutability": "view",
      "type": "function",
      "constant": true
    },
    {
      "inputs": [
        {
          "internalType": "uint256",
          "name": "_period",
          "type": "uint256"
        }
      ],
      "name": "getCurrentFundingRate",
      "outputs": [
        {
          "internalType": "uint256",
          "name": "",
          "type": "uint256"
        }
      ],
      "stateMutability": "view",
      "type": "function",
      "constant": true
    },
    {
      "inputs": [
        {
          "internalType": "uint256",
          "name": "_period",
          "type": "uint256"
        }
      ],
      "name": "getHistoricalFundingRates",
      "outputs": [
        {
          "internalType": "uint256",
          "name": "",
          "type": "uint256"
        }
      ],
      "stateMutability": "view",
      "type": "function",
      "constant": true
    }
  ],
  "bytecode": "0x60c060405234801561001057600080fd5b50604051610a81380380610a8183398101604081905261002f916100e1565b61003833610075565b6001600160a01b039182166080521660a052600180546001600160a01b031916739326bfa02add2366b30bacb125260af641031331179055610114565b600080546001600160a01b038381166001600160a01b0319831681178455604051919092169283917f8be0079c531659141344cd1fd0a4f28419497f9722a3daafe3b4186f6b6457e09190a35050565b80516001600160a01b03811681146100dc57600080fd5b919050565b600080604083850312156100f457600080fd5b6100fd836100c5565b915061010b602084016100c5565b90509250929050565b60805160a05161092c61015560003960008181610196015281816103b7015261051a015260008181610116015281816102120152610366015261092c6000f3fe608060405234801561001057600080fd5b50600436106100cf5760003560e01c80638da5cb5b1161008c578063e57ffaf511610066578063e57ffaf5146101b8578063f2fde38b146101cb578063facf081f146101de578063fd4466cb146101f157600080fd5b80638da5cb5b1461016d5780639226d3e71461017e578063947901361461019157600080fd5b80632681c377146100d45780634e5ebb1e146100ea5780635af3d061146100fe578063690c2f6d14610111578063715018a6146101505780638c1b753a1461015a575b600080fd5b60005b6040519081526020015b60405180910390f35b6100d76100f83660046106bc565b50600090565b6100d761010c3660046106bc565b6101f9565b6101387f000000000000000000000000000000000000000000000000000000000000000081565b6040516001600160a01b0390911681526020016100e1565b61015861028c565b005b6100d76101683660046106bc565b6102f7565b6000546001600160a01b0316610138565b6100d761018c3660046106bc565b61034d565b6101387f000000000000000000000000000000000000000000000000000000000000000081565b6100d76101c6366004610715565b61039d565b6101586101d936600461077a565b610435565b6100d76101ec366004610795565b610500565b6100d76105c8565b60405163f7f427b960e01b8152600481018290526000907f00000000000000000000000000000000000000000000000000000000000000006001600160a01b03169063f7f427b9906024015b602060405180830381865afa158015610262573d6000803e3d6000fd5b505050506040513d601f19601f8201168201806040525081019061028691906107d8565b92915050565b6000546001600160a01b031633146102eb5760405162461bcd60e51b815260206004820181905260248201527f4f776e61626c653a2063616c6c6572206973206e6f7420746865206f776e657260448201526064015b60405180910390fd5b6102f5600061064d565b565b600080610303836101f9565b905060006103108461034d565b905060016000610320848461069d565b9050606461032e83836106b0565b61033990600a610807565b6103439190610826565b9695505050505050565b604051638e7cb6e160e01b8152600481018290526000907f00000000000000000000000000000000000000000000000000000000000000006001600160a01b031690638e7cb6e190602401610245565b60405163cce79bd560e01b81526000906001600160a01b037f0000000000000000000000000000000000000000000000000000000000000000169063cce79bd5906103f49089908990899089908990600401610848565b602060405180830381865afa158015610411573d6000803e3d6000fd5b505050506040513d601f19601f8201168201806040525081019061034391906107d8565b6000546001600160a01b0316331461048f5760405162461bcd60e51b815260206004820181905260248201527f4f776e61626c653a2063616c6c6572206973206e6f7420746865206f776e657260448201526064016102e2565b6001600160a01b0381166104f45760405162461bcd60e51b815260206004820152602660248201527f4f776e61626c653a206e6577206f776e657220697320746865207a65726f206160448201526564647265737360d01b60648201526084016102e2565b6104fd8161064d565b50565b60405163cce79bd560e01b81526000906001600160a01b037f0000000000000000000000000000000000000000000000000000000000000000169063cce79bd59061057f90879073f1b99e3e573a1a9c5e6b2ce818b617f0e664e86b9073a0b86991c6218b36c1d19d4a2e9eb0ce3606eb489089908990600401610848565b602060405180830381865afa15801561059c573d6000803e3d6000fd5b505050506040513d601f19601f820116820180604052508101906105c091906107d8565b949350505050565b600080600160009054906101000a90046001600160a01b03166001600160a01b031663feaf968c6040518163ffffffff1660e01b815260040160a060405180830381865afa15801561061e573d6000803e3d6000fd5b505050506040513d601f19601f82011682018060405250810190610642919061089b565b509195945050505050565b600080546001600160a01b038381166001600160a01b0319831681178455604051919092169283917f8be0079c531659141344cd1fd0a4f28419497f9722a3daafe3b4186f6b6457e09190a35050565b60006106a982846108df565b9392505050565b60006106a98284610807565b6000602082840312156106ce57600080fd5b5035919050565b80356001600160a01b03811681146106ec57600080fd5b919050565b803563ffffffff811681146106ec57600080fd5b803580151581146106ec57600080fd5b600080600080600060a0868803121561072d57600080fd5b610736866106d5565b9450610744602087016106d5565b9350610752604087016106d5565b9250610760606087016106f1565b915061076e60808701610705565b90509295509295909350565b60006020828403121561078c57600080fd5b6106a9826106d5565b6000806000606084860312156107aa57600080fd5b6107b3846106d5565b92506107c1602085016106f1565b91506107cf60408501610705565b90509250925092565b6000602082840312156107ea57600080fd5b5051919050565b634e487b7160e01b600052601160045260246000fd5b6000816000190483118215151615610821576108216107f1565b500290565b60008261084357634e487b7160e01b600052601260045260246000fd5b500490565b6001600160a01b039586168152938516602085015291909316604083015263ffffffff9092166060820152901515608082015260a00190565b805169ffffffffffffffffffff811681146106ec57600080fd5b600080600080600060a086880312156108b357600080fd5b6108bc86610881565b945060208601519350604086015192506060860151915061076e60808701610881565b6000828210156108f1576108f16107f1565b50039056fea2646970667358221220a652d28d8b92325f39030a7c6a604979a6975f92f61293ee75094de6a30ab09064736f6c634300080b0033",
  "immutableReferences": {
    "149": [
      {
        "length": 32,
        "start": 278
      },
      {
        "length": 32,
        "start": 530
      },
      {
        "length": 32,
        "start": 870
      }
    ],
    "151": [
      {
        "length": 32,
        "start": 406
      },
      {
        "length": 32,
        "start": 951
      },
      {
        "length": 32,
        "start": 1306
      }
    ]
  },
  "source": "// SPDX-License-Identifier: MIT\r\n\r\npragma solidity ^0.8.0;\r\npragma abicoder v2;\r\n\r\nimport '@openzeppelin/contracts/access/Ownable.sol';\r\nimport '@openzeppelin/contracts/utils/math/SafeMath.sol';\r\nimport '@chainlink/contracts/src/v0.8/interfaces/AggregatorV3Interface.sol';\r\n//import 'https://github.com/opynfinance/squeeth-monorepo/blob/main/packages/hardhat/contracts/interfaces/IController.sol';\r\n//import 'https://github.com/opynfinance/squeeth-monorepo/blob/main/packages/hardhat/contracts/core/Controller.sol';\r\n\r\nimport './interfaces/IPriceFeedConsumer.sol';\r\n\r\ninterface SqueethProtocolInterface {\r\n    function getIndex(uint _period) external view returns(uint);\r\n    function getDenormalizedMark(uint _period) external view returns(uint);\r\n    function getDenormalizedMarkForFunding(uint _period) external view returns(uint);\r\n    function getExpectedNormalizationFactor() external view returns(uint);\r\n    function getVolatilityPrice() external view returns(uint);\r\n    function getCurrentFundingRate() external view returns(uint);\r\n    function getHistoricalFundingRate() external view returns(uint);\r\n}\r\n\r\ninterface SqueethOracleInterface{\r\n    function getTwap(\r\n        address _pool,\r\n        address _base,\r\n        address _quote,\r\n        uint32 _period,\r\n        bool _checkPeriod\r\n    ) external view returns (uint256);\r\n\r\n    function getHistoricalTwap(\r\n        address _pool,\r\n        address _base,\r\n        address _quote,\r\n        uint32 _secondsAgoToStartOfTwap,\r\n        uint32 _secondsAgoToEndOfTwap\r\n    ) external view returns (uint256);\r\n}\r\n\r\n/**\r\n * @title PriceFeed Contract\r\n * @dev A simple contract that interacts with external contracts by fetching token price data\r\n */\r\ncontract PriceFeedConsumer is IPriceFeedConsumer,Ownable{\r\n    using SafeMath for uint256;\r\n    \r\n    address internal constant OSQTH_TOKEN_ADDRESS = 0xf1B99e3E573A1a9C5E6B2Ce818b617F0E664E86B;\r\n    address internal constant CHAINLINK_KOVAN_ETH_USD_ORACLE = 0x9326BFA02ADD2366b30bacB125260Af641031331;\r\n    address internal constant SQUEETH_CONTROLLER = 0x64187ae08781B09368e6253F9E94951243A493D5;\r\n    address internal constant SQUEETH_ORACLE = 0x65D66c76447ccB45dAf1e8044e918fA786A483A1;\r\n    address internal constant SQU_ETH_UNI_V3_POOL = 0x82c427AdFDf2d245Ec51D8046b41c4ee87F0d29C;\r\n    address internal constant ETH_USDC_UNI_V3_POOL = 0x8ad599c3A0ff1De082011EFDDc58f1908eb6e6D8;\r\n    address internal constant WETH_TOKEN_ADDRESS = 0xC02aaA39b223FE8D0A0e5C4F27eAD9083C756Cc2;\r\n    address internal constant USDC_TOKEN_ADDRESS = 0xA0b86991c6218b36c1d19D4a2e9Eb0cE3606eB48;\r\n\r\n    AggregatorV3Interface internal priceFeed; //instantiate an oracle pricefeed\r\n\r\n    address public immutable squeethProtocol;\r\n    address public immutable squeethOracle;\r\n\r\n    constructor(address _protocol, address _squeethOracle) public{\r\n        squeethProtocol = _protocol;\r\n        squeethOracle = _squeethOracle;\r\n        priceFeed = AggregatorV3Interface(CHAINLINK_KOVAN_ETH_USD_ORACLE);\r\n    }\r\n\r\n    /**\r\n    * @dev returns the latest price of ETH in USD from the chaainlink oracle price feed\r\n    */\r\n    function getChainLinkEthPrice() public view returns(int){\r\n        (,int price,,,) = priceFeed.latestRoundData();\r\n        return price;\r\n    }\r\n\r\n    /**\r\n    * @dev get the ETH/USDC price from the Squeeth Uniswap V3 Pool\r\n    */\r\n    function getSquUniswapPoolEthPrice(\r\n        address _pool,\r\n        address _base,\r\n        address _quote,\r\n        uint32 _period,\r\n        bool _checkPeriod\r\n    ) public view returns(uint){\r\n        return SqueethOracleInterface(squeethOracle).getTwap(_pool,_base, _quote,_period, _checkPeriod);\r\n    }\r\n\r\n    /**\r\n    * @dev returns the latest ETH(2) price (get the index price of the powerPerp, scaled down)\r\n    * @param _period period which you want to calculate twap with\r\n    */\r\n    function getEth2Price(uint _period) public view override returns(uint){\r\n        return SqueethProtocolInterface(squeethProtocol).getIndex(_period);\r\n    }\r\n\r\n    /**\r\n    * @dev get the expected mark price of powerPerp after funding has been applied\r\n    * @param _period uint\r\n    */\r\n    function getMarkPrice(uint _period) public view override returns(uint){\r\n        return SqueethProtocolInterface(squeethProtocol).getDenormalizedMark(_period);\r\n    }\r\n\r\n    /**\r\n    * @dev get the latest squeeth price in USD from the Squeeth-Uniswap V3 pool\r\n    */\r\n    function getOSQthPrice(\r\n        address _pool,\r\n        uint32 _period,\r\n        bool _checkPeriod\r\n    ) public view override returns(uint){\r\n        return SqueethOracleInterface(squeethOracle).getTwap(_pool,OSQTH_TOKEN_ADDRESS, USDC_TOKEN_ADDRESS,_period, _checkPeriod);\r\n    }\r\n\r\n    /**\r\n    * @dev returns implied volatility of the squeeth token from the protocol\r\n    */\r\n    function getImpliedVolatility() public view returns(uint){\r\n\r\n    }\r\n\r\n    /**\r\n    * @dev calculates the funding rate from the payments made by long Squeeth traders to short Squeeth traders \r\n    * based on the disparity between the Index Price (ETH) and the Mark Price (current trading price of Squeeth), \r\n    * regularly (Mark  Index).\r\n    */\r\n    function getCurrentFundingRate(uint _period) public view returns(uint){\r\n        uint markPrice = getMarkPrice(_period);\r\n        uint indexPrice = getEth2Price(_period);\r\n        uint positionSize = 1;\r\n        uint difference = markPrice.sub(indexPrice);\r\n        return (positionSize.mul(difference) * 10) / 100;\r\n    }\r\n\r\n    function getHistoricalFundingRates(uint _period) public view returns(uint){\r\n        //return SqueethProtocolInterface(squeethProtocol).getHistoricalFundingRate();\r\n    }\r\n\r\n}",
  "sourcePath": "D:/Dickens/Programming/Blockchain/Projects/Interviews/Laevitas Defi Protocol/contracts/PriceFeedConsumer.sol",
  "compiler": {
    "name": "solc",
    "version": "0.8.11+commit.d7f03943.Emscripten.clang"
  },
  "schemaVersion": "3.4.1",
  "updatedAt": "2022-01-23T02:40:11.656Z",
  "networkType": "ethereum",
  "devdoc": {
    "details": "A simple contract that interacts with external contracts by fetching token price data",
    "kind": "dev",
    "methods": {
      "getChainLinkEthPrice()": {
        "details": "returns the latest price of ETH in USD from the chaainlink oracle price feed"
      },
      "getCurrentFundingRate(uint256)": {
        "details": "calculates the funding rate from the payments made by long Squeeth traders to short Squeeth traders  based on the disparity between the Index Price (ETH) and the Mark Price (current trading price of Squeeth),  regularly (Mark  Index)."
      },
      "getEth2Price(uint256)": {
        "details": "returns the latest ETH(2) price (get the index price of the powerPerp, scaled down)",
        "params": {
          "_period": "period which you want to calculate twap with"
        }
      },
      "getImpliedVolatility()": {
        "details": "returns implied volatility of the squeeth token from the protocol"
      },
      "getMarkPrice(uint256)": {
        "details": "get the expected mark price of powerPerp after funding has been applied",
        "params": {
          "_period": "uint"
        }
      },
      "getOSQthPrice(address,uint32,bool)": {
        "details": "get the latest squeeth price in USD from the Squeeth-Uniswap V3 pool"
      },
      "getSquUniswapPoolEthPrice(address,address,address,uint32,bool)": {
        "details": "get the ETH/USDC price from the Squeeth Uniswap V3 Pool"
      },
      "owner()": {
        "details": "Returns the address of the current owner."
      },
      "renounceOwnership()": {
        "details": "Leaves the contract without owner. It will not be possible to call `onlyOwner` functions anymore. Can only be called by the current owner. NOTE: Renouncing ownership will leave the contract without an owner, thereby removing any functionality that is only available to the owner."
      },
      "transferOwnership(address)": {
        "details": "Transfers ownership of the contract to a new account (`newOwner`). Can only be called by the current owner."
      }
    },
    "title": "PriceFeed Contract",
    "version": 1
  },
  "userdoc": {
    "kind": "user",
    "methods": {},
    "version": 1
  }
}